{"abi":[{"inputs":[{"internalType":"uint256","name":"minimum","type":"uint256"},{"internalType":"address","name":"creator","type":"address"}],"stateMutability":"nonpayable","type":"constructor"},{"inputs":[{"internalType":"uint256","name":"index","type":"uint256"}],"name":"approveRequest","outputs":[],"stateMutability":"nonpayable","type":"function"},{"inputs":[{"internalType":"address","name":"","type":"address"}],"name":"approvers","outputs":[{"internalType":"bool","name":"","type":"bool"}],"stateMutability":"view","type":"function"},{"inputs":[],"name":"approversCount","outputs":[{"internalType":"uint256","name":"","type":"uint256"}],"stateMutability":"view","type":"function"},{"inputs":[],"name":"contribute","outputs":[],"stateMutability":"payable","type":"function"},{"inputs":[{"internalType":"string","name":"description","type":"string"},{"internalType":"uint256","name":"value","type":"uint256"},{"internalType":"address","name":"recipient","type":"address"}],"name":"createRequest","outputs":[],"stateMutability":"nonpayable","type":"function"},{"inputs":[{"internalType":"uint256","name":"index","type":"uint256"}],"name":"finalizeRequest","outputs":[],"stateMutability":"nonpayable","type":"function"},{"inputs":[],"name":"getSummary","outputs":[{"internalType":"uint256","name":"","type":"uint256"},{"internalType":"uint256","name":"","type":"uint256"},{"internalType":"uint256","name":"","type":"uint256"},{"internalType":"uint256","name":"","type":"uint256"},{"internalType":"address","name":"","type":"address"}],"stateMutability":"view","type":"function"},{"inputs":[],"name":"manager","outputs":[{"internalType":"address","name":"","type":"address"}],"stateMutability":"view","type":"function"},{"inputs":[],"name":"minimumContribution","outputs":[{"internalType":"uint256","name":"","type":"uint256"}],"stateMutability":"view","type":"function"},{"inputs":[],"name":"requestCount","outputs":[{"internalType":"uint256","name":"","type":"uint256"}],"stateMutability":"view","type":"function"},{"inputs":[{"internalType":"uint256","name":"","type":"uint256"}],"name":"requests","outputs":[{"internalType":"string","name":"description","type":"string"},{"internalType":"uint256","name":"value","type":"uint256"},{"internalType":"address","name":"recipient","type":"address"},{"internalType":"bool","name":"complete","type":"bool"},{"internalType":"uint256","name":"approvalCount","type":"uint256"}],"stateMutability":"view","type":"function"}],"devdoc":{"kind":"dev","methods":{},"version":1},"evm":{"assembly":"    /* \"campaign.sol\":467:2686  contract Campaign {\r... */\n  mstore(0x40, 0x80)\n    /* \"campaign.sol\":1031:1150  constructor(uint minimum, address creator) {\r... */\n  callvalue\n  dup1\n  iszero\n  tag_1\n  jumpi\n  0x00\n  dup1\n  revert\ntag_1:\n  pop\n  mload(0x40)\n  sub(codesize, bytecodeSize)\n  dup1\n  bytecodeSize\n  dup4\n  codecopy\n  dup2\n  dup2\n  add\n  0x40\n  mstore\n  dup2\n  add\n  swap1\n  tag_2\n  swap2\n  swap1\n  tag_3\n  jump\t// in\ntag_2:\n    /* \"campaign.sol\":1095:1102  creator */\n  dup1\n    /* \"campaign.sol\":1085:1092  manager */\n  0x00\n  dup1\n    /* \"campaign.sol\":1085:1102  manager = creator */\n  0x0100\n  exp\n  dup2\n  sload\n  dup2\n  0xffffffffffffffffffffffffffffffffffffffff\n  mul\n  not\n  and\n  swap1\n  dup4\n  0xffffffffffffffffffffffffffffffffffffffff\n  and\n  mul\n  or\n  swap1\n  sstore\n  pop\n    /* \"campaign.sol\":1135:1142  minimum */\n  dup2\n    /* \"campaign.sol\":1113:1132  minimumContribution */\n  0x01\n    /* \"campaign.sol\":1113:1142  minimumContribution = minimum */\n  dup2\n  swap1\n  sstore\n  pop\n    /* \"campaign.sol\":1031:1150  constructor(uint minimum, address creator) {\r... */\n  pop\n  pop\n    /* \"campaign.sol\":467:2686  contract Campaign {\r... */\n  jump(tag_6)\n    /* \"#utility.yul\":7:150   */\ntag_8:\n    /* \"#utility.yul\":64:69   */\n  0x00\n    /* \"#utility.yul\":95:101   */\n  dup2\n    /* \"#utility.yul\":89:102   */\n  mload\n    /* \"#utility.yul\":80:102   */\n  swap1\n  pop\n    /* \"#utility.yul\":111:144   */\n  tag_10\n    /* \"#utility.yul\":138:143   */\n  dup2\n    /* \"#utility.yul\":111:144   */\n  tag_11\n  jump\t// in\ntag_10:\n    /* \"#utility.yul\":70:150   */\n  swap3\n  swap2\n  pop\n  pop\n  jump\t// out\n    /* \"#utility.yul\":156:299   */\ntag_12:\n    /* \"#utility.yul\":213:218   */\n  0x00\n    /* \"#utility.yul\":244:250   */\n  dup2\n    /* \"#utility.yul\":238:251   */\n  mload\n    /* \"#utility.yul\":229:251   */\n  swap1\n  pop\n    /* \"#utility.yul\":260:293   */\n  tag_14\n    /* \"#utility.yul\":287:292   */\n  dup2\n    /* \"#utility.yul\":260:293   */\n  tag_15\n  jump\t// in\ntag_14:\n    /* \"#utility.yul\":219:299   */\n  swap3\n  swap2\n  pop\n  pop\n  jump\t// out\n    /* \"#utility.yul\":305:745   */\ntag_3:\n    /* \"#utility.yul\":384:390   */\n  0x00\n    /* \"#utility.yul\":392:398   */\n  dup1\n    /* \"#utility.yul\":441:443   */\n  0x40\n    /* \"#utility.yul\":429:438   */\n  dup4\n    /* \"#utility.yul\":420:427   */\n  dup6\n    /* \"#utility.yul\":416:439   */\n  sub\n    /* \"#utility.yul\":412:444   */\n  slt\n    /* \"#utility.yul\":409:411   */\n  iszero\n  tag_17\n  jumpi\n    /* \"#utility.yul\":457:458   */\n  0x00\n    /* \"#utility.yul\":454:455   */\n  dup1\n    /* \"#utility.yul\":447:459   */\n  revert\n    /* \"#utility.yul\":409:411   */\ntag_17:\n    /* \"#utility.yul\":500:501   */\n  0x00\n    /* \"#utility.yul\":525:589   */\n  tag_18\n    /* \"#utility.yul\":581:588   */\n  dup6\n    /* \"#utility.yul\":572:578   */\n  dup3\n    /* \"#utility.yul\":561:570   */\n  dup7\n    /* \"#utility.yul\":557:579   */\n  add\n    /* \"#utility.yul\":525:589   */\n  tag_12\n  jump\t// in\ntag_18:\n    /* \"#utility.yul\":515:589   */\n  swap3\n  pop\n    /* \"#utility.yul\":471:599   */\n  pop\n    /* \"#utility.yul\":638:640   */\n  0x20\n    /* \"#utility.yul\":664:728   */\n  tag_19\n    /* \"#utility.yul\":720:727   */\n  dup6\n    /* \"#utility.yul\":711:717   */\n  dup3\n    /* \"#utility.yul\":700:709   */\n  dup7\n    /* \"#utility.yul\":696:718   */\n  add\n    /* \"#utility.yul\":664:728   */\n  tag_8\n  jump\t// in\ntag_19:\n    /* \"#utility.yul\":654:728   */\n  swap2\n  pop\n    /* \"#utility.yul\":609:738   */\n  pop\n    /* \"#utility.yul\":399:745   */\n  swap3\n  pop\n  swap3\n  swap1\n  pop\n  jump\t// out\n    /* \"#utility.yul\":751:847   */\ntag_20:\n    /* \"#utility.yul\":788:795   */\n  0x00\n    /* \"#utility.yul\":817:841   */\n  tag_22\n    /* \"#utility.yul\":835:840   */\n  dup3\n    /* \"#utility.yul\":817:841   */\n  tag_23\n  jump\t// in\ntag_22:\n    /* \"#utility.yul\":806:841   */\n  swap1\n  pop\n    /* \"#utility.yul\":796:847   */\n  swap2\n  swap1\n  pop\n  jump\t// out\n    /* \"#utility.yul\":853:979   */\ntag_23:\n    /* \"#utility.yul\":890:897   */\n  0x00\n    /* \"#utility.yul\":930:972   */\n  0xffffffffffffffffffffffffffffffffffffffff\n    /* \"#utility.yul\":923:928   */\n  dup3\n    /* \"#utility.yul\":919:973   */\n  and\n    /* \"#utility.yul\":908:973   */\n  swap1\n  pop\n    /* \"#utility.yul\":898:979   */\n  swap2\n  swap1\n  pop\n  jump\t// out\n    /* \"#utility.yul\":985:1062   */\ntag_25:\n    /* \"#utility.yul\":1022:1029   */\n  0x00\n    /* \"#utility.yul\":1051:1056   */\n  dup2\n    /* \"#utility.yul\":1040:1056   */\n  swap1\n  pop\n    /* \"#utility.yul\":1030:1062   */\n  swap2\n  swap1\n  pop\n  jump\t// out\n    /* \"#utility.yul\":1068:1190   */\ntag_11:\n    /* \"#utility.yul\":1141:1165   */\n  tag_28\n    /* \"#utility.yul\":1159:1164   */\n  dup2\n    /* \"#utility.yul\":1141:1165   */\n  tag_20\n  jump\t// in\ntag_28:\n    /* \"#utility.yul\":1134:1139   */\n  dup2\n    /* \"#utility.yul\":1131:1166   */\n  eq\n    /* \"#utility.yul\":1121:1123   */\n  tag_29\n  jumpi\n    /* \"#utility.yul\":1180:1181   */\n  0x00\n    /* \"#utility.yul\":1177:1178   */\n  dup1\n    /* \"#utility.yul\":1170:1182   */\n  revert\n    /* \"#utility.yul\":1121:1123   */\ntag_29:\n    /* \"#utility.yul\":1111:1190   */\n  pop\n  jump\t// out\n    /* \"#utility.yul\":1196:1318   */\ntag_15:\n    /* \"#utility.yul\":1269:1293   */\n  tag_31\n    /* \"#utility.yul\":1287:1292   */\n  dup2\n    /* \"#utility.yul\":1269:1293   */\n  tag_25\n  jump\t// in\ntag_31:\n    /* \"#utility.yul\":1262:1267   */\n  dup2\n    /* \"#utility.yul\":1259:1294   */\n  eq\n    /* \"#utility.yul\":1249:1251   */\n  tag_32\n  jumpi\n    /* \"#utility.yul\":1308:1309   */\n  0x00\n    /* \"#utility.yul\":1305:1306   */\n  dup1\n    /* \"#utility.yul\":1298:1310   */\n  revert\n    /* \"#utility.yul\":1249:1251   */\ntag_32:\n    /* \"#utility.yul\":1239:1318   */\n  pop\n  jump\t// out\n    /* \"campaign.sol\":467:2686  contract Campaign {\r... */\ntag_6:\n  dataSize(sub_0)\n  dup1\n  dataOffset(sub_0)\n  0x00\n  codecopy\n  0x00\n  return\nstop\n\nsub_0: assembly {\n        /* \"campaign.sol\":467:2686  contract Campaign {\r... */\n      mstore(0x40, 0x80)\n      jumpi(tag_1, lt(calldatasize, 0x04))\n      shr(0xe0, calldataload(0x00))\n      dup1\n      0x81d12c58\n      gt\n      tag_13\n      jumpi\n      dup1\n      0x81d12c58\n      eq\n      tag_7\n      jumpi\n      dup1\n      0x82fde093\n      eq\n      tag_8\n      jumpi\n      dup1\n      0x8a9cfd55\n      eq\n      tag_9\n      jumpi\n      dup1\n      0x937e09b1\n      eq\n      tag_10\n      jumpi\n      dup1\n      0xd7bb99ba\n      eq\n      tag_11\n      jumpi\n      dup1\n      0xd7d1bbdb\n      eq\n      tag_12\n      jumpi\n      jump(tag_1)\n    tag_13:\n      dup1\n      0x03441006\n      eq\n      tag_2\n      jumpi\n      dup1\n      0x0a144391\n      eq\n      tag_3\n      jumpi\n      dup1\n      0x4051ddac\n      eq\n      tag_4\n      jumpi\n      dup1\n      0x481c6a75\n      eq\n      tag_5\n      jumpi\n      dup1\n      0x5badbe4c\n      eq\n      tag_6\n      jumpi\n    tag_1:\n      0x00\n      dup1\n      revert\n        /* \"campaign.sol\":2062:2394  function finalizeRequest(uint index) public managerOnly {\r... */\n    tag_2:\n      callvalue\n      dup1\n      iszero\n      tag_14\n      jumpi\n      0x00\n      dup1\n      revert\n    tag_14:\n      pop\n      tag_15\n      0x04\n      dup1\n      calldatasize\n      sub\n      dup2\n      add\n      swap1\n      tag_16\n      swap2\n      swap1\n      tag_17\n      jump\t// in\n    tag_16:\n      tag_18\n      jump\t// in\n    tag_15:\n      stop\n        /* \"campaign.sol\":770:811  mapping(address => bool) public approvers */\n    tag_3:\n      callvalue\n      dup1\n      iszero\n      tag_19\n      jumpi\n      0x00\n      dup1\n      revert\n    tag_19:\n      pop\n      tag_20\n      0x04\n      dup1\n      calldatasize\n      sub\n      dup2\n      add\n      swap1\n      tag_21\n      swap2\n      swap1\n      tag_22\n      jump\t// in\n    tag_21:\n      tag_23\n      jump\t// in\n    tag_20:\n      mload(0x40)\n      tag_24\n      swap2\n      swap1\n      tag_25\n      jump\t// in\n    tag_24:\n      mload(0x40)\n      dup1\n      swap2\n      sub\n      swap1\n      return\n        /* \"campaign.sol\":2402:2683  function getSummary() external view returns (\r... */\n    tag_4:\n      callvalue\n      dup1\n      iszero\n      tag_26\n      jumpi\n      0x00\n      dup1\n      revert\n    tag_26:\n      pop\n      tag_27\n      tag_28\n      jump\t// in\n    tag_27:\n      mload(0x40)\n      tag_29\n      swap6\n      swap5\n      swap4\n      swap3\n      swap2\n      swap1\n      tag_30\n      jump\t// in\n    tag_29:\n      mload(0x40)\n      dup1\n      swap2\n      sub\n      swap1\n      return\n        /* \"campaign.sol\":703:725  address public manager */\n    tag_5:\n      callvalue\n      dup1\n      iszero\n      tag_31\n      jumpi\n      0x00\n      dup1\n      revert\n    tag_31:\n      pop\n      tag_32\n      tag_33\n      jump\t// in\n    tag_32:\n      mload(0x40)\n      tag_34\n      swap2\n      swap1\n      tag_35\n      jump\t// in\n    tag_34:\n      mload(0x40)\n      dup1\n      swap2\n      sub\n      swap1\n      return\n        /* \"campaign.sol\":865:889  uint public requestCount */\n    tag_6:\n      callvalue\n      dup1\n      iszero\n      tag_36\n      jumpi\n      0x00\n      dup1\n      revert\n    tag_36:\n      pop\n      tag_37\n      tag_38\n      jump\t// in\n    tag_37:\n      mload(0x40)\n      tag_39\n      swap2\n      swap1\n      tag_40\n      jump\t// in\n    tag_39:\n      mload(0x40)\n      dup1\n      swap2\n      sub\n      swap1\n      return\n        /* \"campaign.sol\":818:858  mapping(uint => Request) public requests */\n    tag_7:\n      callvalue\n      dup1\n      iszero\n      tag_41\n      jumpi\n      0x00\n      dup1\n      revert\n    tag_41:\n      pop\n      tag_42\n      0x04\n      dup1\n      calldatasize\n      sub\n      dup2\n      add\n      swap1\n      tag_43\n      swap2\n      swap1\n      tag_17\n      jump\t// in\n    tag_43:\n      tag_44\n      jump\t// in\n    tag_42:\n      mload(0x40)\n      tag_45\n      swap6\n      swap5\n      swap4\n      swap3\n      swap2\n      swap1\n      tag_46\n      jump\t// in\n    tag_45:\n      mload(0x40)\n      dup1\n      swap2\n      sub\n      swap1\n      return\n        /* \"campaign.sol\":896:922  uint public approversCount */\n    tag_8:\n      callvalue\n      dup1\n      iszero\n      tag_47\n      jumpi\n      0x00\n      dup1\n      revert\n    tag_47:\n      pop\n      tag_48\n      tag_49\n      jump\t// in\n    tag_48:\n      mload(0x40)\n      tag_50\n      swap2\n      swap1\n      tag_40\n      jump\t// in\n    tag_50:\n      mload(0x40)\n      dup1\n      swap2\n      sub\n      swap1\n      return\n        /* \"campaign.sol\":1339:1742  function createRequest(\r... */\n    tag_9:\n      callvalue\n      dup1\n      iszero\n      tag_51\n      jumpi\n      0x00\n      dup1\n      revert\n    tag_51:\n      pop\n      tag_52\n      0x04\n      dup1\n      calldatasize\n      sub\n      dup2\n      add\n      swap1\n      tag_53\n      swap2\n      swap1\n      tag_54\n      jump\t// in\n    tag_53:\n      tag_55\n      jump\t// in\n    tag_52:\n      stop\n        /* \"campaign.sol\":732:763  uint public minimumContribution */\n    tag_10:\n      callvalue\n      dup1\n      iszero\n      tag_56\n      jumpi\n      0x00\n      dup1\n      revert\n    tag_56:\n      pop\n      tag_57\n      tag_58\n      jump\t// in\n    tag_57:\n      mload(0x40)\n      tag_59\n      swap2\n      swap1\n      tag_40\n      jump\t// in\n    tag_59:\n      mload(0x40)\n      dup1\n      swap2\n      sub\n      swap1\n      return\n        /* \"campaign.sol\":1162:1327  function contribute() external payable {\r... */\n    tag_11:\n      tag_60\n      tag_61\n      jump\t// in\n    tag_60:\n      stop\n        /* \"campaign.sol\":1754:2049  function approveRequest(uint index) public {\r... */\n    tag_12:\n      callvalue\n      dup1\n      iszero\n      tag_62\n      jumpi\n      0x00\n      dup1\n      revert\n    tag_62:\n      pop\n      tag_63\n      0x04\n      dup1\n      calldatasize\n      sub\n      dup2\n      add\n      swap1\n      tag_64\n      swap2\n      swap1\n      tag_17\n      jump\t// in\n    tag_64:\n      tag_65\n      jump\t// in\n    tag_63:\n      stop\n        /* \"campaign.sol\":2062:2394  function finalizeRequest(uint index) public managerOnly {\r... */\n    tag_18:\n        /* \"campaign.sol\":991:998  manager */\n      0x00\n      dup1\n      sload\n      swap1\n      0x0100\n      exp\n      swap1\n      div\n      0xffffffffffffffffffffffffffffffffffffffff\n      and\n        /* \"campaign.sol\":977:998  msg.sender == manager */\n      0xffffffffffffffffffffffffffffffffffffffff\n      and\n        /* \"campaign.sol\":977:987  msg.sender */\n      caller\n        /* \"campaign.sol\":977:998  msg.sender == manager */\n      0xffffffffffffffffffffffffffffffffffffffff\n      and\n      eq\n        /* \"campaign.sol\":969:999  require(msg.sender == manager) */\n      tag_67\n      jumpi\n      0x00\n      dup1\n      revert\n    tag_67:\n        /* \"campaign.sol\":2129:2152  Request storage request */\n      0x00\n        /* \"campaign.sol\":2155:2163  requests */\n      0x03\n        /* \"campaign.sol\":2155:2170  requests[index] */\n      0x00\n        /* \"campaign.sol\":2164:2169  index */\n      dup4\n        /* \"campaign.sol\":2155:2170  requests[index] */\n      dup2\n      mstore\n      0x20\n      add\n      swap1\n      dup2\n      mstore\n      0x20\n      add\n      0x00\n      keccak256\n        /* \"campaign.sol\":2129:2170  Request storage request = requests[index] */\n      swap1\n      pop\n        /* \"campaign.sol\":2200:2207  request */\n      dup1\n        /* \"campaign.sol\":2200:2216  request.complete */\n      0x02\n      add\n      0x14\n      swap1\n      sload\n      swap1\n      0x0100\n      exp\n      swap1\n      div\n      0xff\n      and\n        /* \"campaign.sol\":2199:2216  !request.complete */\n      iszero\n        /* \"campaign.sol\":2191:2217  require(!request.complete) */\n      tag_69\n      jumpi\n      0x00\n      dup1\n      revert\n    tag_69:\n        /* \"campaign.sol\":2278:2279  2 */\n      0x02\n        /* \"campaign.sol\":2261:2275  approversCount */\n      sload(0x05)\n        /* \"campaign.sol\":2261:2279  approversCount / 2 */\n      tag_70\n      swap2\n      swap1\n      tag_71\n      jump\t// in\n    tag_70:\n        /* \"campaign.sol\":2236:2243  request */\n      dup2\n        /* \"campaign.sol\":2236:2257  request.approvalCount */\n      0x03\n      add\n      sload\n        /* \"campaign.sol\":2236:2280  request.approvalCount > (approversCount / 2) */\n      gt\n        /* \"campaign.sol\":2228:2281  require(request.approvalCount > (approversCount / 2)) */\n      tag_72\n      jumpi\n      0x00\n      dup1\n      revert\n    tag_72:\n        /* \"campaign.sol\":2310:2317  request */\n      dup1\n        /* \"campaign.sol\":2310:2327  request.recipient */\n      0x02\n      add\n      0x00\n      swap1\n      sload\n      swap1\n      0x0100\n      exp\n      swap1\n      div\n      0xffffffffffffffffffffffffffffffffffffffff\n      and\n        /* \"campaign.sol\":2302:2337  payable(request.recipient).transfer */\n      0xffffffffffffffffffffffffffffffffffffffff\n      and\n        /* \"campaign.sol\":2302:2352  payable(request.recipient).transfer(request.value) */\n      0x08fc\n        /* \"campaign.sol\":2338:2345  request */\n      dup3\n        /* \"campaign.sol\":2338:2351  request.value */\n      0x01\n      add\n      sload\n        /* \"campaign.sol\":2302:2352  payable(request.recipient).transfer(request.value) */\n      swap1\n      dup2\n      iszero\n      mul\n      swap1\n      mload(0x40)\n      0x00\n      mload(0x40)\n      dup1\n      dup4\n      sub\n      dup2\n      dup6\n      dup9\n      dup9\n      call\n      swap4\n      pop\n      pop\n      pop\n      pop\n      iszero\n      dup1\n      iszero\n      tag_74\n      jumpi\n      returndatasize\n      0x00\n      dup1\n      returndatacopy\n      revert(0x00, returndatasize)\n    tag_74:\n      pop\n        /* \"campaign.sol\":2382:2386  true */\n      0x01\n        /* \"campaign.sol\":2363:2370  request */\n      dup2\n        /* \"campaign.sol\":2363:2379  request.complete */\n      0x02\n      add\n      0x14\n        /* \"campaign.sol\":2363:2386  request.complete = true */\n      0x0100\n      exp\n      dup2\n      sload\n      dup2\n      0xff\n      mul\n      not\n      and\n      swap1\n      dup4\n      iszero\n      iszero\n      mul\n      or\n      swap1\n      sstore\n      pop\n        /* \"campaign.sol\":1010:1011  _ */\n      pop\n        /* \"campaign.sol\":2062:2394  function finalizeRequest(uint index) public managerOnly {\r... */\n      pop\n      jump\t// out\n        /* \"campaign.sol\":770:811  mapping(address => bool) public approvers */\n    tag_23:\n      mstore(0x20, 0x02)\n      dup1\n      0x00\n      mstore\n      keccak256(0x00, 0x40)\n      0x00\n      swap2\n      pop\n      sload\n      swap1\n      0x0100\n      exp\n      swap1\n      div\n      0xff\n      and\n      dup2\n      jump\t// out\n        /* \"campaign.sol\":2402:2683  function getSummary() external view returns (\r... */\n    tag_28:\n        /* \"campaign.sol\":2455:2459  uint */\n      0x00\n        /* \"campaign.sol\":2468:2472  uint */\n      dup1\n        /* \"campaign.sol\":2481:2485  uint */\n      0x00\n        /* \"campaign.sol\":2494:2498  uint */\n      dup1\n        /* \"campaign.sol\":2507:2514  address */\n      0x00\n        /* \"campaign.sol\":2549:2568  minimumContribution */\n      sload(0x01)\n        /* \"campaign.sol\":2579:2600  address(this).balance */\n      selfbalance\n        /* \"campaign.sol\":2611:2623  requestCount */\n      sload(0x04)\n        /* \"campaign.sol\":2634:2648  approversCount */\n      sload(0x05)\n        /* \"campaign.sol\":2659:2666  manager */\n      0x00\n      dup1\n      sload\n      swap1\n      0x0100\n      exp\n      swap1\n      div\n      0xffffffffffffffffffffffffffffffffffffffff\n      and\n        /* \"campaign.sol\":2531:2675  return (\r... */\n      swap5\n      pop\n      swap5\n      pop\n      swap5\n      pop\n      swap5\n      pop\n      swap5\n      pop\n        /* \"campaign.sol\":2402:2683  function getSummary() external view returns (\r... */\n      swap1\n      swap2\n      swap3\n      swap4\n      swap5\n      jump\t// out\n        /* \"campaign.sol\":703:725  address public manager */\n    tag_33:\n      0x00\n      dup1\n      sload\n      swap1\n      0x0100\n      exp\n      swap1\n      div\n      0xffffffffffffffffffffffffffffffffffffffff\n      and\n      dup2\n      jump\t// out\n        /* \"campaign.sol\":865:889  uint public requestCount */\n    tag_38:\n      sload(0x04)\n      dup2\n      jump\t// out\n        /* \"campaign.sol\":818:858  mapping(uint => Request) public requests */\n    tag_44:\n      mstore(0x20, 0x03)\n      dup1\n      0x00\n      mstore\n      keccak256(0x00, 0x40)\n      0x00\n      swap2\n      pop\n      swap1\n      pop\n      dup1\n      0x00\n      add\n      dup1\n      sload\n      tag_76\n      swap1\n      tag_77\n      jump\t// in\n    tag_76:\n      dup1\n      0x1f\n      add\n      0x20\n      dup1\n      swap2\n      div\n      mul\n      0x20\n      add\n      mload(0x40)\n      swap1\n      dup2\n      add\n      0x40\n      mstore\n      dup1\n      swap3\n      swap2\n      swap1\n      dup2\n      dup2\n      mstore\n      0x20\n      add\n      dup3\n      dup1\n      sload\n      tag_78\n      swap1\n      tag_77\n      jump\t// in\n    tag_78:\n      dup1\n      iszero\n      tag_79\n      jumpi\n      dup1\n      0x1f\n      lt\n      tag_80\n      jumpi\n      0x0100\n      dup1\n      dup4\n      sload\n      div\n      mul\n      dup4\n      mstore\n      swap2\n      0x20\n      add\n      swap2\n      jump(tag_79)\n    tag_80:\n      dup3\n      add\n      swap2\n      swap1\n      0x00\n      mstore\n      keccak256(0x00, 0x20)\n      swap1\n    tag_81:\n      dup2\n      sload\n      dup2\n      mstore\n      swap1\n      0x01\n      add\n      swap1\n      0x20\n      add\n      dup1\n      dup4\n      gt\n      tag_81\n      jumpi\n      dup3\n      swap1\n      sub\n      0x1f\n      and\n      dup3\n      add\n      swap2\n    tag_79:\n      pop\n      pop\n      pop\n      pop\n      pop\n      swap1\n      dup1\n      0x01\n      add\n      sload\n      swap1\n      dup1\n      0x02\n      add\n      0x00\n      swap1\n      sload\n      swap1\n      0x0100\n      exp\n      swap1\n      div\n      0xffffffffffffffffffffffffffffffffffffffff\n      and\n      swap1\n      dup1\n      0x02\n      add\n      0x14\n      swap1\n      sload\n      swap1\n      0x0100\n      exp\n      swap1\n      div\n      0xff\n      and\n      swap1\n      dup1\n      0x03\n      add\n      sload\n      swap1\n      pop\n      dup6\n      jump\t// out\n        /* \"campaign.sol\":896:922  uint public approversCount */\n    tag_49:\n      sload(0x05)\n      dup2\n      jump\t// out\n        /* \"campaign.sol\":1339:1742  function createRequest(\r... */\n    tag_55:\n        /* \"campaign.sol\":991:998  manager */\n      0x00\n      dup1\n      sload\n      swap1\n      0x0100\n      exp\n      swap1\n      div\n      0xffffffffffffffffffffffffffffffffffffffff\n      and\n        /* \"campaign.sol\":977:998  msg.sender == manager */\n      0xffffffffffffffffffffffffffffffffffffffff\n      and\n        /* \"campaign.sol\":977:987  msg.sender */\n      caller\n        /* \"campaign.sol\":977:998  msg.sender == manager */\n      0xffffffffffffffffffffffffffffffffffffffff\n      and\n      eq\n        /* \"campaign.sol\":969:999  require(msg.sender == manager) */\n      tag_83\n      jumpi\n      0x00\n      dup1\n      revert\n    tag_83:\n        /* \"campaign.sol\":1485:1511  Request storage newRequest */\n      0x00\n        /* \"campaign.sol\":1514:1522  requests */\n      0x03\n        /* \"campaign.sol\":1514:1536  requests[requestCount] */\n      0x00\n        /* \"campaign.sol\":1523:1535  requestCount */\n      sload(0x04)\n        /* \"campaign.sol\":1514:1536  requests[requestCount] */\n      dup2\n      mstore\n      0x20\n      add\n      swap1\n      dup2\n      mstore\n      0x20\n      add\n      0x00\n      keccak256\n        /* \"campaign.sol\":1485:1536  Request storage newRequest = requests[requestCount] */\n      swap1\n      pop\n        /* \"campaign.sol\":1572:1583  description */\n      dup4\n        /* \"campaign.sol\":1547:1557  newRequest */\n      dup2\n        /* \"campaign.sol\":1547:1569  newRequest.description */\n      0x00\n      add\n        /* \"campaign.sol\":1547:1583  newRequest.description = description */\n      swap1\n      dup1\n      mload\n      swap1\n      0x20\n      add\n      swap1\n      tag_85\n      swap3\n      swap2\n      swap1\n      tag_86\n      jump\t// in\n    tag_85:\n      pop\n        /* \"campaign.sol\":1613:1618  value */\n      dup3\n        /* \"campaign.sol\":1594:1604  newRequest */\n      dup2\n        /* \"campaign.sol\":1594:1610  newRequest.value */\n      0x01\n      add\n        /* \"campaign.sol\":1594:1618  newRequest.value = value */\n      dup2\n      swap1\n      sstore\n      pop\n        /* \"campaign.sol\":1652:1661  recipient */\n      dup2\n        /* \"campaign.sol\":1629:1639  newRequest */\n      dup2\n        /* \"campaign.sol\":1629:1649  newRequest.recipient */\n      0x02\n      add\n      0x00\n        /* \"campaign.sol\":1629:1661  newRequest.recipient = recipient */\n      0x0100\n      exp\n      dup2\n      sload\n      dup2\n      0xffffffffffffffffffffffffffffffffffffffff\n      mul\n      not\n      and\n      swap1\n      dup4\n      0xffffffffffffffffffffffffffffffffffffffff\n      and\n      mul\n      or\n      swap1\n      sstore\n      pop\n        /* \"campaign.sol\":1694:1699  false */\n      0x00\n        /* \"campaign.sol\":1672:1682  newRequest */\n      dup2\n        /* \"campaign.sol\":1672:1691  newRequest.complete */\n      0x02\n      add\n      0x14\n        /* \"campaign.sol\":1672:1699  newRequest.complete = false */\n      0x0100\n      exp\n      dup2\n      sload\n      dup2\n      0xff\n      mul\n      not\n      and\n      swap1\n      dup4\n      iszero\n      iszero\n      mul\n      or\n      swap1\n      sstore\n      pop\n        /* \"campaign.sol\":1720:1732  requestCount */\n      0x04\n      0x00\n        /* \"campaign.sol\":1720:1734  requestCount++ */\n      dup2\n      sload\n      dup1\n      swap3\n      swap2\n      swap1\n      tag_87\n      swap1\n      tag_88\n      jump\t// in\n    tag_87:\n      swap2\n      swap1\n      pop\n      sstore\n      pop\n        /* \"campaign.sol\":1010:1011  _ */\n      pop\n        /* \"campaign.sol\":1339:1742  function createRequest(\r... */\n      pop\n      pop\n      pop\n      jump\t// out\n        /* \"campaign.sol\":732:763  uint public minimumContribution */\n    tag_58:\n      sload(0x01)\n      dup2\n      jump\t// out\n        /* \"campaign.sol\":1162:1327  function contribute() external payable {\r... */\n    tag_61:\n        /* \"campaign.sol\":1233:1252  minimumContribution */\n      sload(0x01)\n        /* \"campaign.sol\":1220:1229  msg.value */\n      callvalue\n        /* \"campaign.sol\":1220:1252  msg.value >= minimumContribution */\n      lt\n      iszero\n        /* \"campaign.sol\":1212:1253  require(msg.value >= minimumContribution) */\n      tag_90\n      jumpi\n      0x00\n      dup1\n      revert\n    tag_90:\n        /* \"campaign.sol\":1288:1292  true */\n      0x01\n        /* \"campaign.sol\":1264:1273  approvers */\n      0x02\n        /* \"campaign.sol\":1264:1285  approvers[msg.sender] */\n      0x00\n        /* \"campaign.sol\":1274:1284  msg.sender */\n      caller\n        /* \"campaign.sol\":1264:1285  approvers[msg.sender] */\n      0xffffffffffffffffffffffffffffffffffffffff\n      and\n      0xffffffffffffffffffffffffffffffffffffffff\n      and\n      dup2\n      mstore\n      0x20\n      add\n      swap1\n      dup2\n      mstore\n      0x20\n      add\n      0x00\n      keccak256\n      0x00\n        /* \"campaign.sol\":1264:1292  approvers[msg.sender] = true */\n      0x0100\n      exp\n      dup2\n      sload\n      dup2\n      0xff\n      mul\n      not\n      and\n      swap1\n      dup4\n      iszero\n      iszero\n      mul\n      or\n      swap1\n      sstore\n      pop\n        /* \"campaign.sol\":1303:1317  approversCount */\n      0x05\n      0x00\n        /* \"campaign.sol\":1303:1319  approversCount++ */\n      dup2\n      sload\n      dup1\n      swap3\n      swap2\n      swap1\n      tag_91\n      swap1\n      tag_88\n      jump\t// in\n    tag_91:\n      swap2\n      swap1\n      pop\n      sstore\n      pop\n        /* \"campaign.sol\":1162:1327  function contribute() external payable {\r... */\n      jump\t// out\n        /* \"campaign.sol\":1754:2049  function approveRequest(uint index) public {\r... */\n    tag_65:\n        /* \"campaign.sol\":1808:1831  Request storage request */\n      0x00\n        /* \"campaign.sol\":1834:1842  requests */\n      0x03\n        /* \"campaign.sol\":1834:1849  requests[index] */\n      0x00\n        /* \"campaign.sol\":1843:1848  index */\n      dup4\n        /* \"campaign.sol\":1834:1849  requests[index] */\n      dup2\n      mstore\n      0x20\n      add\n      swap1\n      dup2\n      mstore\n      0x20\n      add\n      0x00\n      keccak256\n        /* \"campaign.sol\":1808:1849  Request storage request = requests[index] */\n      swap1\n      pop\n        /* \"campaign.sol\":1878:1887  approvers */\n      0x02\n        /* \"campaign.sol\":1878:1899  approvers[msg.sender] */\n      0x00\n        /* \"campaign.sol\":1888:1898  msg.sender */\n      caller\n        /* \"campaign.sol\":1878:1899  approvers[msg.sender] */\n      0xffffffffffffffffffffffffffffffffffffffff\n      and\n      0xffffffffffffffffffffffffffffffffffffffff\n      and\n      dup2\n      mstore\n      0x20\n      add\n      swap1\n      dup2\n      mstore\n      0x20\n      add\n      0x00\n      keccak256\n      0x00\n      swap1\n      sload\n      swap1\n      0x0100\n      exp\n      swap1\n      div\n      0xff\n      and\n        /* \"campaign.sol\":1870:1900  require(approvers[msg.sender]) */\n      tag_93\n      jumpi\n      0x00\n      dup1\n      revert\n    tag_93:\n        /* \"campaign.sol\":1920:1927  request */\n      dup1\n        /* \"campaign.sol\":1920:1937  request.approvals */\n      0x04\n      add\n        /* \"campaign.sol\":1920:1949  request.approvals[msg.sender] */\n      0x00\n        /* \"campaign.sol\":1938:1948  msg.sender */\n      caller\n        /* \"campaign.sol\":1920:1949  request.approvals[msg.sender] */\n      0xffffffffffffffffffffffffffffffffffffffff\n      and\n      0xffffffffffffffffffffffffffffffffffffffff\n      and\n      dup2\n      mstore\n      0x20\n      add\n      swap1\n      dup2\n      mstore\n      0x20\n      add\n      0x00\n      keccak256\n      0x00\n      swap1\n      sload\n      swap1\n      0x0100\n      exp\n      swap1\n      div\n      0xff\n      and\n        /* \"campaign.sol\":1919:1949  !request.approvals[msg.sender] */\n      iszero\n        /* \"campaign.sol\":1911:1950  require(!request.approvals[msg.sender]) */\n      tag_94\n      jumpi\n      0x00\n      dup1\n      revert\n    tag_94:\n        /* \"campaign.sol\":2003:2007  true */\n      0x01\n        /* \"campaign.sol\":1971:1978  request */\n      dup2\n        /* \"campaign.sol\":1971:1988  request.approvals */\n      0x04\n      add\n        /* \"campaign.sol\":1971:2000  request.approvals[msg.sender] */\n      0x00\n        /* \"campaign.sol\":1989:1999  msg.sender */\n      caller\n        /* \"campaign.sol\":1971:2000  request.approvals[msg.sender] */\n      0xffffffffffffffffffffffffffffffffffffffff\n      and\n      0xffffffffffffffffffffffffffffffffffffffff\n      and\n      dup2\n      mstore\n      0x20\n      add\n      swap1\n      dup2\n      mstore\n      0x20\n      add\n      0x00\n      keccak256\n      0x00\n        /* \"campaign.sol\":1971:2007  request.approvals[msg.sender] = true */\n      0x0100\n      exp\n      dup2\n      sload\n      dup2\n      0xff\n      mul\n      not\n      and\n      swap1\n      dup4\n      iszero\n      iszero\n      mul\n      or\n      swap1\n      sstore\n      pop\n        /* \"campaign.sol\":2018:2025  request */\n      dup1\n        /* \"campaign.sol\":2018:2039  request.approvalCount */\n      0x03\n      add\n      0x00\n        /* \"campaign.sol\":2018:2041  request.approvalCount++ */\n      dup2\n      sload\n      dup1\n      swap3\n      swap2\n      swap1\n      tag_95\n      swap1\n      tag_88\n      jump\t// in\n    tag_95:\n      swap2\n      swap1\n      pop\n      sstore\n      pop\n        /* \"campaign.sol\":1754:2049  function approveRequest(uint index) public {\r... */\n      pop\n      pop\n      jump\t// out\n    tag_86:\n      dup3\n      dup1\n      sload\n      tag_96\n      swap1\n      tag_77\n      jump\t// in\n    tag_96:\n      swap1\n      0x00\n      mstore\n      keccak256(0x00, 0x20)\n      swap1\n      0x1f\n      add\n      0x20\n      swap1\n      div\n      dup2\n      add\n      swap3\n      dup3\n      tag_98\n      jumpi\n      0x00\n      dup6\n      sstore\n      jump(tag_97)\n    tag_98:\n      dup3\n      0x1f\n      lt\n      tag_99\n      jumpi\n      dup1\n      mload\n      not(0xff)\n      and\n      dup4\n      dup1\n      add\n      or\n      dup6\n      sstore\n      jump(tag_97)\n    tag_99:\n      dup3\n      dup1\n      add\n      0x01\n      add\n      dup6\n      sstore\n      dup3\n      iszero\n      tag_97\n      jumpi\n      swap2\n      dup3\n      add\n    tag_100:\n      dup3\n      dup2\n      gt\n      iszero\n      tag_101\n      jumpi\n      dup3\n      mload\n      dup3\n      sstore\n      swap2\n      0x20\n      add\n      swap2\n      swap1\n      0x01\n      add\n      swap1\n      jump(tag_100)\n    tag_101:\n    tag_97:\n      pop\n      swap1\n      pop\n      tag_102\n      swap2\n      swap1\n      tag_103\n      jump\t// in\n    tag_102:\n      pop\n      swap1\n      jump\t// out\n    tag_103:\n    tag_104:\n      dup1\n      dup3\n      gt\n      iszero\n      tag_105\n      jumpi\n      0x00\n      dup2\n      0x00\n      swap1\n      sstore\n      pop\n      0x01\n      add\n      jump(tag_104)\n    tag_105:\n      pop\n      swap1\n      jump\t// out\n        /* \"#utility.yul\":7:352   */\n    tag_107:\n        /* \"#utility.yul\":85:90   */\n      0x00\n        /* \"#utility.yul\":110:176   */\n      tag_109\n        /* \"#utility.yul\":126:175   */\n      tag_110\n        /* \"#utility.yul\":168:174   */\n      dup5\n        /* \"#utility.yul\":126:175   */\n      tag_111\n      jump\t// in\n    tag_110:\n        /* \"#utility.yul\":110:176   */\n      tag_112\n      jump\t// in\n    tag_109:\n        /* \"#utility.yul\":101:176   */\n      swap1\n      pop\n        /* \"#utility.yul\":199:205   */\n      dup3\n        /* \"#utility.yul\":192:197   */\n      dup2\n        /* \"#utility.yul\":185:206   */\n      mstore\n        /* \"#utility.yul\":237:241   */\n      0x20\n        /* \"#utility.yul\":230:235   */\n      dup2\n        /* \"#utility.yul\":226:242   */\n      add\n        /* \"#utility.yul\":275:278   */\n      dup5\n        /* \"#utility.yul\":266:272   */\n      dup5\n        /* \"#utility.yul\":261:264   */\n      dup5\n        /* \"#utility.yul\":257:273   */\n      add\n        /* \"#utility.yul\":254:279   */\n      gt\n        /* \"#utility.yul\":251:253   */\n      iszero\n      tag_113\n      jumpi\n        /* \"#utility.yul\":292:293   */\n      0x00\n        /* \"#utility.yul\":289:290   */\n      dup1\n        /* \"#utility.yul\":282:294   */\n      revert\n        /* \"#utility.yul\":251:253   */\n    tag_113:\n        /* \"#utility.yul\":305:346   */\n      tag_114\n        /* \"#utility.yul\":339:345   */\n      dup5\n        /* \"#utility.yul\":334:337   */\n      dup3\n        /* \"#utility.yul\":329:332   */\n      dup6\n        /* \"#utility.yul\":305:346   */\n      tag_115\n      jump\t// in\n    tag_114:\n        /* \"#utility.yul\":91:352   */\n      pop\n      swap4\n      swap3\n      pop\n      pop\n      pop\n      jump\t// out\n        /* \"#utility.yul\":358:497   */\n    tag_116:\n        /* \"#utility.yul\":404:409   */\n      0x00\n        /* \"#utility.yul\":442:448   */\n      dup2\n        /* \"#utility.yul\":429:449   */\n      calldataload\n        /* \"#utility.yul\":420:449   */\n      swap1\n      pop\n        /* \"#utility.yul\":458:491   */\n      tag_118\n        /* \"#utility.yul\":485:490   */\n      dup2\n        /* \"#utility.yul\":458:491   */\n      tag_119\n      jump\t// in\n    tag_118:\n        /* \"#utility.yul\":410:497   */\n      swap3\n      swap2\n      pop\n      pop\n      jump\t// out\n        /* \"#utility.yul\":517:790   */\n    tag_120:\n        /* \"#utility.yul\":573:578   */\n      0x00\n        /* \"#utility.yul\":622:625   */\n      dup3\n        /* \"#utility.yul\":615:619   */\n      0x1f\n        /* \"#utility.yul\":607:613   */\n      dup4\n        /* \"#utility.yul\":603:620   */\n      add\n        /* \"#utility.yul\":599:626   */\n      slt\n        /* \"#utility.yul\":589:591   */\n      tag_122\n      jumpi\n        /* \"#utility.yul\":640:641   */\n      0x00\n        /* \"#utility.yul\":637:638   */\n      dup1\n        /* \"#utility.yul\":630:642   */\n      revert\n        /* \"#utility.yul\":589:591   */\n    tag_122:\n        /* \"#utility.yul\":680:686   */\n      dup2\n        /* \"#utility.yul\":667:687   */\n      calldataload\n        /* \"#utility.yul\":705:784   */\n      tag_123\n        /* \"#utility.yul\":780:783   */\n      dup5\n        /* \"#utility.yul\":772:778   */\n      dup3\n        /* \"#utility.yul\":765:769   */\n      0x20\n        /* \"#utility.yul\":757:763   */\n      dup7\n        /* \"#utility.yul\":753:770   */\n      add\n        /* \"#utility.yul\":705:784   */\n      tag_107\n      jump\t// in\n    tag_123:\n        /* \"#utility.yul\":696:784   */\n      swap2\n      pop\n        /* \"#utility.yul\":579:790   */\n      pop\n      swap3\n      swap2\n      pop\n      pop\n      jump\t// out\n        /* \"#utility.yul\":796:935   */\n    tag_124:\n        /* \"#utility.yul\":842:847   */\n      0x00\n        /* \"#utility.yul\":880:886   */\n      dup2\n        /* \"#utility.yul\":867:887   */\n      calldataload\n        /* \"#utility.yul\":858:887   */\n      swap1\n      pop\n        /* \"#utility.yul\":896:929   */\n      tag_126\n        /* \"#utility.yul\":923:928   */\n      dup2\n        /* \"#utility.yul\":896:929   */\n      tag_127\n      jump\t// in\n    tag_126:\n        /* \"#utility.yul\":848:935   */\n      swap3\n      swap2\n      pop\n      pop\n      jump\t// out\n        /* \"#utility.yul\":941:1203   */\n    tag_22:\n        /* \"#utility.yul\":1000:1006   */\n      0x00\n        /* \"#utility.yul\":1049:1051   */\n      0x20\n        /* \"#utility.yul\":1037:1046   */\n      dup3\n        /* \"#utility.yul\":1028:1035   */\n      dup5\n        /* \"#utility.yul\":1024:1047   */\n      sub\n        /* \"#utility.yul\":1020:1052   */\n      slt\n        /* \"#utility.yul\":1017:1019   */\n      iszero\n      tag_129\n      jumpi\n        /* \"#utility.yul\":1065:1066   */\n      0x00\n        /* \"#utility.yul\":1062:1063   */\n      dup1\n        /* \"#utility.yul\":1055:1067   */\n      revert\n        /* \"#utility.yul\":1017:1019   */\n    tag_129:\n        /* \"#utility.yul\":1108:1109   */\n      0x00\n        /* \"#utility.yul\":1133:1186   */\n      tag_130\n        /* \"#utility.yul\":1178:1185   */\n      dup5\n        /* \"#utility.yul\":1169:1175   */\n      dup3\n        /* \"#utility.yul\":1158:1167   */\n      dup6\n        /* \"#utility.yul\":1154:1176   */\n      add\n        /* \"#utility.yul\":1133:1186   */\n      tag_116\n      jump\t// in\n    tag_130:\n        /* \"#utility.yul\":1123:1186   */\n      swap2\n      pop\n        /* \"#utility.yul\":1079:1196   */\n      pop\n        /* \"#utility.yul\":1007:1203   */\n      swap3\n      swap2\n      pop\n      pop\n      jump\t// out\n        /* \"#utility.yul\":1209:1874   */\n    tag_54:\n        /* \"#utility.yul\":1296:1302   */\n      0x00\n        /* \"#utility.yul\":1304:1310   */\n      dup1\n        /* \"#utility.yul\":1312:1318   */\n      0x00\n        /* \"#utility.yul\":1361:1363   */\n      0x60\n        /* \"#utility.yul\":1349:1358   */\n      dup5\n        /* \"#utility.yul\":1340:1347   */\n      dup7\n        /* \"#utility.yul\":1336:1359   */\n      sub\n        /* \"#utility.yul\":1332:1364   */\n      slt\n        /* \"#utility.yul\":1329:1331   */\n      iszero\n      tag_132\n      jumpi\n        /* \"#utility.yul\":1377:1378   */\n      0x00\n        /* \"#utility.yul\":1374:1375   */\n      dup1\n        /* \"#utility.yul\":1367:1379   */\n      revert\n        /* \"#utility.yul\":1329:1331   */\n    tag_132:\n        /* \"#utility.yul\":1448:1449   */\n      0x00\n        /* \"#utility.yul\":1437:1446   */\n      dup5\n        /* \"#utility.yul\":1433:1450   */\n      add\n        /* \"#utility.yul\":1420:1451   */\n      calldataload\n        /* \"#utility.yul\":1478:1496   */\n      0xffffffffffffffff\n        /* \"#utility.yul\":1470:1476   */\n      dup2\n        /* \"#utility.yul\":1467:1497   */\n      gt\n        /* \"#utility.yul\":1464:1466   */\n      iszero\n      tag_133\n      jumpi\n        /* \"#utility.yul\":1510:1511   */\n      0x00\n        /* \"#utility.yul\":1507:1508   */\n      dup1\n        /* \"#utility.yul\":1500:1512   */\n      revert\n        /* \"#utility.yul\":1464:1466   */\n    tag_133:\n        /* \"#utility.yul\":1538:1601   */\n      tag_134\n        /* \"#utility.yul\":1593:1600   */\n      dup7\n        /* \"#utility.yul\":1584:1590   */\n      dup3\n        /* \"#utility.yul\":1573:1582   */\n      dup8\n        /* \"#utility.yul\":1569:1591   */\n      add\n        /* \"#utility.yul\":1538:1601   */\n      tag_120\n      jump\t// in\n    tag_134:\n        /* \"#utility.yul\":1528:1601   */\n      swap4\n      pop\n        /* \"#utility.yul\":1391:1611   */\n      pop\n        /* \"#utility.yul\":1650:1652   */\n      0x20\n        /* \"#utility.yul\":1676:1729   */\n      tag_135\n        /* \"#utility.yul\":1721:1728   */\n      dup7\n        /* \"#utility.yul\":1712:1718   */\n      dup3\n        /* \"#utility.yul\":1701:1710   */\n      dup8\n        /* \"#utility.yul\":1697:1719   */\n      add\n        /* \"#utility.yul\":1676:1729   */\n      tag_124\n      jump\t// in\n    tag_135:\n        /* \"#utility.yul\":1666:1729   */\n      swap3\n      pop\n        /* \"#utility.yul\":1621:1739   */\n      pop\n        /* \"#utility.yul\":1778:1780   */\n      0x40\n        /* \"#utility.yul\":1804:1857   */\n      tag_136\n        /* \"#utility.yul\":1849:1856   */\n      dup7\n        /* \"#utility.yul\":1840:1846   */\n      dup3\n        /* \"#utility.yul\":1829:1838   */\n      dup8\n        /* \"#utility.yul\":1825:1847   */\n      add\n        /* \"#utility.yul\":1804:1857   */\n      tag_116\n      jump\t// in\n    tag_136:\n        /* \"#utility.yul\":1794:1857   */\n      swap2\n      pop\n        /* \"#utility.yul\":1749:1867   */\n      pop\n        /* \"#utility.yul\":1319:1874   */\n      swap3\n      pop\n      swap3\n      pop\n      swap3\n      jump\t// out\n        /* \"#utility.yul\":1880:2142   */\n    tag_17:\n        /* \"#utility.yul\":1939:1945   */\n      0x00\n        /* \"#utility.yul\":1988:1990   */\n      0x20\n        /* \"#utility.yul\":1976:1985   */\n      dup3\n        /* \"#utility.yul\":1967:1974   */\n      dup5\n        /* \"#utility.yul\":1963:1986   */\n      sub\n        /* \"#utility.yul\":1959:1991   */\n      slt\n        /* \"#utility.yul\":1956:1958   */\n      iszero\n      tag_138\n      jumpi\n        /* \"#utility.yul\":2004:2005   */\n      0x00\n        /* \"#utility.yul\":2001:2002   */\n      dup1\n        /* \"#utility.yul\":1994:2006   */\n      revert\n        /* \"#utility.yul\":1956:1958   */\n    tag_138:\n        /* \"#utility.yul\":2047:2048   */\n      0x00\n        /* \"#utility.yul\":2072:2125   */\n      tag_139\n        /* \"#utility.yul\":2117:2124   */\n      dup5\n        /* \"#utility.yul\":2108:2114   */\n      dup3\n        /* \"#utility.yul\":2097:2106   */\n      dup6\n        /* \"#utility.yul\":2093:2115   */\n      add\n        /* \"#utility.yul\":2072:2125   */\n      tag_124\n      jump\t// in\n    tag_139:\n        /* \"#utility.yul\":2062:2125   */\n      swap2\n      pop\n        /* \"#utility.yul\":2018:2135   */\n      pop\n        /* \"#utility.yul\":1946:2142   */\n      swap3\n      swap2\n      pop\n      pop\n      jump\t// out\n        /* \"#utility.yul\":2148:2266   */\n    tag_140:\n        /* \"#utility.yul\":2235:2259   */\n      tag_142\n        /* \"#utility.yul\":2253:2258   */\n      dup2\n        /* \"#utility.yul\":2235:2259   */\n      tag_143\n      jump\t// in\n    tag_142:\n        /* \"#utility.yul\":2230:2233   */\n      dup3\n        /* \"#utility.yul\":2223:2260   */\n      mstore\n        /* \"#utility.yul\":2213:2266   */\n      pop\n      pop\n      jump\t// out\n        /* \"#utility.yul\":2272:2381   */\n    tag_144:\n        /* \"#utility.yul\":2353:2374   */\n      tag_146\n        /* \"#utility.yul\":2368:2373   */\n      dup2\n        /* \"#utility.yul\":2353:2374   */\n      tag_147\n      jump\t// in\n    tag_146:\n        /* \"#utility.yul\":2348:2351   */\n      dup3\n        /* \"#utility.yul\":2341:2375   */\n      mstore\n        /* \"#utility.yul\":2331:2381   */\n      pop\n      pop\n      jump\t// out\n        /* \"#utility.yul\":2387:2751   */\n    tag_148:\n        /* \"#utility.yul\":2475:2478   */\n      0x00\n        /* \"#utility.yul\":2503:2542   */\n      tag_150\n        /* \"#utility.yul\":2536:2541   */\n      dup3\n        /* \"#utility.yul\":2503:2542   */\n      tag_151\n      jump\t// in\n    tag_150:\n        /* \"#utility.yul\":2558:2629   */\n      tag_152\n        /* \"#utility.yul\":2622:2628   */\n      dup2\n        /* \"#utility.yul\":2617:2620   */\n      dup6\n        /* \"#utility.yul\":2558:2629   */\n      tag_153\n      jump\t// in\n    tag_152:\n        /* \"#utility.yul\":2551:2629   */\n      swap4\n      pop\n        /* \"#utility.yul\":2638:2690   */\n      tag_154\n        /* \"#utility.yul\":2683:2689   */\n      dup2\n        /* \"#utility.yul\":2678:2681   */\n      dup6\n        /* \"#utility.yul\":2671:2675   */\n      0x20\n        /* \"#utility.yul\":2664:2669   */\n      dup7\n        /* \"#utility.yul\":2660:2676   */\n      add\n        /* \"#utility.yul\":2638:2690   */\n      tag_155\n      jump\t// in\n    tag_154:\n        /* \"#utility.yul\":2715:2744   */\n      tag_156\n        /* \"#utility.yul\":2737:2743   */\n      dup2\n        /* \"#utility.yul\":2715:2744   */\n      tag_157\n      jump\t// in\n    tag_156:\n        /* \"#utility.yul\":2710:2713   */\n      dup5\n        /* \"#utility.yul\":2706:2745   */\n      add\n        /* \"#utility.yul\":2699:2745   */\n      swap2\n      pop\n        /* \"#utility.yul\":2479:2751   */\n      pop\n      swap3\n      swap2\n      pop\n      pop\n      jump\t// out\n        /* \"#utility.yul\":2757:2875   */\n    tag_158:\n        /* \"#utility.yul\":2844:2868   */\n      tag_160\n        /* \"#utility.yul\":2862:2867   */\n      dup2\n        /* \"#utility.yul\":2844:2868   */\n      tag_161\n      jump\t// in\n    tag_160:\n        /* \"#utility.yul\":2839:2842   */\n      dup3\n        /* \"#utility.yul\":2832:2869   */\n      mstore\n        /* \"#utility.yul\":2822:2875   */\n      pop\n      pop\n      jump\t// out\n        /* \"#utility.yul\":2881:3103   */\n    tag_35:\n        /* \"#utility.yul\":2974:2978   */\n      0x00\n        /* \"#utility.yul\":3012:3014   */\n      0x20\n        /* \"#utility.yul\":3001:3010   */\n      dup3\n        /* \"#utility.yul\":2997:3015   */\n      add\n        /* \"#utility.yul\":2989:3015   */\n      swap1\n      pop\n        /* \"#utility.yul\":3025:3096   */\n      tag_163\n        /* \"#utility.yul\":3093:3094   */\n      0x00\n        /* \"#utility.yul\":3082:3091   */\n      dup4\n        /* \"#utility.yul\":3078:3095   */\n      add\n        /* \"#utility.yul\":3069:3075   */\n      dup5\n        /* \"#utility.yul\":3025:3096   */\n      tag_140\n      jump\t// in\n    tag_163:\n        /* \"#utility.yul\":2979:3103   */\n      swap3\n      swap2\n      pop\n      pop\n      jump\t// out\n        /* \"#utility.yul\":3109:3319   */\n    tag_25:\n        /* \"#utility.yul\":3196:3200   */\n      0x00\n        /* \"#utility.yul\":3234:3236   */\n      0x20\n        /* \"#utility.yul\":3223:3232   */\n      dup3\n        /* \"#utility.yul\":3219:3237   */\n      add\n        /* \"#utility.yul\":3211:3237   */\n      swap1\n      pop\n        /* \"#utility.yul\":3247:3312   */\n      tag_165\n        /* \"#utility.yul\":3309:3310   */\n      0x00\n        /* \"#utility.yul\":3298:3307   */\n      dup4\n        /* \"#utility.yul\":3294:3311   */\n      add\n        /* \"#utility.yul\":3285:3291   */\n      dup5\n        /* \"#utility.yul\":3247:3312   */\n      tag_144\n      jump\t// in\n    tag_165:\n        /* \"#utility.yul\":3201:3319   */\n      swap3\n      swap2\n      pop\n      pop\n      jump\t// out\n        /* \"#utility.yul\":3325:4068   */\n    tag_46:\n        /* \"#utility.yul\":3544:3548   */\n      0x00\n        /* \"#utility.yul\":3582:3585   */\n      0xa0\n        /* \"#utility.yul\":3571:3580   */\n      dup3\n        /* \"#utility.yul\":3567:3586   */\n      add\n        /* \"#utility.yul\":3559:3586   */\n      swap1\n      pop\n        /* \"#utility.yul\":3632:3641   */\n      dup2\n        /* \"#utility.yul\":3626:3630   */\n      dup2\n        /* \"#utility.yul\":3622:3642   */\n      sub\n        /* \"#utility.yul\":3618:3619   */\n      0x00\n        /* \"#utility.yul\":3607:3616   */\n      dup4\n        /* \"#utility.yul\":3603:3620   */\n      add\n        /* \"#utility.yul\":3596:3643   */\n      mstore\n        /* \"#utility.yul\":3660:3738   */\n      tag_167\n        /* \"#utility.yul\":3733:3737   */\n      dup2\n        /* \"#utility.yul\":3724:3730   */\n      dup9\n        /* \"#utility.yul\":3660:3738   */\n      tag_148\n      jump\t// in\n    tag_167:\n        /* \"#utility.yul\":3652:3738   */\n      swap1\n      pop\n        /* \"#utility.yul\":3748:3820   */\n      tag_168\n        /* \"#utility.yul\":3816:3818   */\n      0x20\n        /* \"#utility.yul\":3805:3814   */\n      dup4\n        /* \"#utility.yul\":3801:3819   */\n      add\n        /* \"#utility.yul\":3792:3798   */\n      dup8\n        /* \"#utility.yul\":3748:3820   */\n      tag_158\n      jump\t// in\n    tag_168:\n        /* \"#utility.yul\":3830:3902   */\n      tag_169\n        /* \"#utility.yul\":3898:3900   */\n      0x40\n        /* \"#utility.yul\":3887:3896   */\n      dup4\n        /* \"#utility.yul\":3883:3901   */\n      add\n        /* \"#utility.yul\":3874:3880   */\n      dup7\n        /* \"#utility.yul\":3830:3902   */\n      tag_140\n      jump\t// in\n    tag_169:\n        /* \"#utility.yul\":3912:3978   */\n      tag_170\n        /* \"#utility.yul\":3974:3976   */\n      0x60\n        /* \"#utility.yul\":3963:3972   */\n      dup4\n        /* \"#utility.yul\":3959:3977   */\n      add\n        /* \"#utility.yul\":3950:3956   */\n      dup6\n        /* \"#utility.yul\":3912:3978   */\n      tag_144\n      jump\t// in\n    tag_170:\n        /* \"#utility.yul\":3988:4061   */\n      tag_171\n        /* \"#utility.yul\":4056:4059   */\n      0x80\n        /* \"#utility.yul\":4045:4054   */\n      dup4\n        /* \"#utility.yul\":4041:4060   */\n      add\n        /* \"#utility.yul\":4032:4038   */\n      dup5\n        /* \"#utility.yul\":3988:4061   */\n      tag_158\n      jump\t// in\n    tag_171:\n        /* \"#utility.yul\":3549:4068   */\n      swap7\n      swap6\n      pop\n      pop\n      pop\n      pop\n      pop\n      pop\n      jump\t// out\n        /* \"#utility.yul\":4074:4296   */\n    tag_40:\n        /* \"#utility.yul\":4167:4171   */\n      0x00\n        /* \"#utility.yul\":4205:4207   */\n      0x20\n        /* \"#utility.yul\":4194:4203   */\n      dup3\n        /* \"#utility.yul\":4190:4208   */\n      add\n        /* \"#utility.yul\":4182:4208   */\n      swap1\n      pop\n        /* \"#utility.yul\":4218:4289   */\n      tag_173\n        /* \"#utility.yul\":4286:4287   */\n      0x00\n        /* \"#utility.yul\":4275:4284   */\n      dup4\n        /* \"#utility.yul\":4271:4288   */\n      add\n        /* \"#utility.yul\":4262:4268   */\n      dup5\n        /* \"#utility.yul\":4218:4289   */\n      tag_158\n      jump\t// in\n    tag_173:\n        /* \"#utility.yul\":4172:4296   */\n      swap3\n      swap2\n      pop\n      pop\n      jump\t// out\n        /* \"#utility.yul\":4302:4966   */\n    tag_30:\n        /* \"#utility.yul\":4507:4511   */\n      0x00\n        /* \"#utility.yul\":4545:4548   */\n      0xa0\n        /* \"#utility.yul\":4534:4543   */\n      dup3\n        /* \"#utility.yul\":4530:4549   */\n      add\n        /* \"#utility.yul\":4522:4549   */\n      swap1\n      pop\n        /* \"#utility.yul\":4559:4630   */\n      tag_175\n        /* \"#utility.yul\":4627:4628   */\n      0x00\n        /* \"#utility.yul\":4616:4625   */\n      dup4\n        /* \"#utility.yul\":4612:4629   */\n      add\n        /* \"#utility.yul\":4603:4609   */\n      dup9\n        /* \"#utility.yul\":4559:4630   */\n      tag_158\n      jump\t// in\n    tag_175:\n        /* \"#utility.yul\":4640:4712   */\n      tag_176\n        /* \"#utility.yul\":4708:4710   */\n      0x20\n        /* \"#utility.yul\":4697:4706   */\n      dup4\n        /* \"#utility.yul\":4693:4711   */\n      add\n        /* \"#utility.yul\":4684:4690   */\n      dup8\n        /* \"#utility.yul\":4640:4712   */\n      tag_158\n      jump\t// in\n    tag_176:\n        /* \"#utility.yul\":4722:4794   */\n      tag_177\n        /* \"#utility.yul\":4790:4792   */\n      0x40\n        /* \"#utility.yul\":4779:4788   */\n      dup4\n        /* \"#utility.yul\":4775:4793   */\n      add\n        /* \"#utility.yul\":4766:4772   */\n      dup7\n        /* \"#utility.yul\":4722:4794   */\n      tag_158\n      jump\t// in\n    tag_177:\n        /* \"#utility.yul\":4804:4876   */\n      tag_178\n        /* \"#utility.yul\":4872:4874   */\n      0x60\n        /* \"#utility.yul\":4861:4870   */\n      dup4\n        /* \"#utility.yul\":4857:4875   */\n      add\n        /* \"#utility.yul\":4848:4854   */\n      dup6\n        /* \"#utility.yul\":4804:4876   */\n      tag_158\n      jump\t// in\n    tag_178:\n        /* \"#utility.yul\":4886:4959   */\n      tag_179\n        /* \"#utility.yul\":4954:4957   */\n      0x80\n        /* \"#utility.yul\":4943:4952   */\n      dup4\n        /* \"#utility.yul\":4939:4958   */\n      add\n        /* \"#utility.yul\":4930:4936   */\n      dup5\n        /* \"#utility.yul\":4886:4959   */\n      tag_140\n      jump\t// in\n    tag_179:\n        /* \"#utility.yul\":4512:4966   */\n      swap7\n      swap6\n      pop\n      pop\n      pop\n      pop\n      pop\n      pop\n      jump\t// out\n        /* \"#utility.yul\":4972:5101   */\n    tag_112:\n        /* \"#utility.yul\":5006:5012   */\n      0x00\n        /* \"#utility.yul\":5033:5053   */\n      tag_181\n      tag_182\n      jump\t// in\n    tag_181:\n        /* \"#utility.yul\":5023:5053   */\n      swap1\n      pop\n        /* \"#utility.yul\":5062:5095   */\n      tag_183\n        /* \"#utility.yul\":5090:5094   */\n      dup3\n        /* \"#utility.yul\":5082:5088   */\n      dup3\n        /* \"#utility.yul\":5062:5095   */\n      tag_184\n      jump\t// in\n    tag_183:\n        /* \"#utility.yul\":5013:5101   */\n      swap2\n      swap1\n      pop\n      jump\t// out\n        /* \"#utility.yul\":5107:5182   */\n    tag_182:\n        /* \"#utility.yul\":5140:5146   */\n      0x00\n        /* \"#utility.yul\":5173:5175   */\n      0x40\n        /* \"#utility.yul\":5167:5176   */\n      mload\n        /* \"#utility.yul\":5157:5176   */\n      swap1\n      pop\n        /* \"#utility.yul\":5147:5182   */\n      swap1\n      jump\t// out\n        /* \"#utility.yul\":5188:5496   */\n    tag_111:\n        /* \"#utility.yul\":5250:5254   */\n      0x00\n        /* \"#utility.yul\":5340:5358   */\n      0xffffffffffffffff\n        /* \"#utility.yul\":5332:5338   */\n      dup3\n        /* \"#utility.yul\":5329:5359   */\n      gt\n        /* \"#utility.yul\":5326:5328   */\n      iszero\n      tag_187\n      jumpi\n        /* \"#utility.yul\":5362:5380   */\n      tag_188\n      tag_189\n      jump\t// in\n    tag_188:\n        /* \"#utility.yul\":5326:5328   */\n    tag_187:\n        /* \"#utility.yul\":5400:5429   */\n      tag_190\n        /* \"#utility.yul\":5422:5428   */\n      dup3\n        /* \"#utility.yul\":5400:5429   */\n      tag_157\n      jump\t// in\n    tag_190:\n        /* \"#utility.yul\":5392:5429   */\n      swap1\n      pop\n        /* \"#utility.yul\":5484:5488   */\n      0x20\n        /* \"#utility.yul\":5478:5482   */\n      dup2\n        /* \"#utility.yul\":5474:5489   */\n      add\n        /* \"#utility.yul\":5466:5489   */\n      swap1\n      pop\n        /* \"#utility.yul\":5255:5496   */\n      swap2\n      swap1\n      pop\n      jump\t// out\n        /* \"#utility.yul\":5502:5601   */\n    tag_151:\n        /* \"#utility.yul\":5554:5560   */\n      0x00\n        /* \"#utility.yul\":5588:5593   */\n      dup2\n        /* \"#utility.yul\":5582:5594   */\n      mload\n        /* \"#utility.yul\":5572:5594   */\n      swap1\n      pop\n        /* \"#utility.yul\":5561:5601   */\n      swap2\n      swap1\n      pop\n      jump\t// out\n        /* \"#utility.yul\":5607:5776   */\n    tag_153:\n        /* \"#utility.yul\":5691:5702   */\n      0x00\n        /* \"#utility.yul\":5725:5731   */\n      dup3\n        /* \"#utility.yul\":5720:5723   */\n      dup3\n        /* \"#utility.yul\":5713:5732   */\n      mstore\n        /* \"#utility.yul\":5765:5769   */\n      0x20\n        /* \"#utility.yul\":5760:5763   */\n      dup3\n        /* \"#utility.yul\":5756:5770   */\n      add\n        /* \"#utility.yul\":5741:5770   */\n      swap1\n      pop\n        /* \"#utility.yul\":5703:5776   */\n      swap3\n      swap2\n      pop\n      pop\n      jump\t// out\n        /* \"#utility.yul\":5782:5967   */\n    tag_71:\n        /* \"#utility.yul\":5822:5823   */\n      0x00\n        /* \"#utility.yul\":5839:5859   */\n      tag_194\n        /* \"#utility.yul\":5857:5858   */\n      dup3\n        /* \"#utility.yul\":5839:5859   */\n      tag_161\n      jump\t// in\n    tag_194:\n        /* \"#utility.yul\":5834:5859   */\n      swap2\n      pop\n        /* \"#utility.yul\":5873:5893   */\n      tag_195\n        /* \"#utility.yul\":5891:5892   */\n      dup4\n        /* \"#utility.yul\":5873:5893   */\n      tag_161\n      jump\t// in\n    tag_195:\n        /* \"#utility.yul\":5868:5893   */\n      swap3\n      pop\n        /* \"#utility.yul\":5912:5913   */\n      dup3\n        /* \"#utility.yul\":5902:5904   */\n      tag_196\n      jumpi\n        /* \"#utility.yul\":5917:5935   */\n      tag_197\n      tag_198\n      jump\t// in\n    tag_197:\n        /* \"#utility.yul\":5902:5904   */\n    tag_196:\n        /* \"#utility.yul\":5959:5960   */\n      dup3\n        /* \"#utility.yul\":5956:5957   */\n      dup3\n        /* \"#utility.yul\":5952:5961   */\n      div\n        /* \"#utility.yul\":5947:5961   */\n      swap1\n      pop\n        /* \"#utility.yul\":5824:5967   */\n      swap3\n      swap2\n      pop\n      pop\n      jump\t// out\n        /* \"#utility.yul\":5973:6069   */\n    tag_143:\n        /* \"#utility.yul\":6010:6017   */\n      0x00\n        /* \"#utility.yul\":6039:6063   */\n      tag_200\n        /* \"#utility.yul\":6057:6062   */\n      dup3\n        /* \"#utility.yul\":6039:6063   */\n      tag_201\n      jump\t// in\n    tag_200:\n        /* \"#utility.yul\":6028:6063   */\n      swap1\n      pop\n        /* \"#utility.yul\":6018:6069   */\n      swap2\n      swap1\n      pop\n      jump\t// out\n        /* \"#utility.yul\":6075:6165   */\n    tag_147:\n        /* \"#utility.yul\":6109:6116   */\n      0x00\n        /* \"#utility.yul\":6152:6157   */\n      dup2\n        /* \"#utility.yul\":6145:6158   */\n      iszero\n        /* \"#utility.yul\":6138:6159   */\n      iszero\n        /* \"#utility.yul\":6127:6159   */\n      swap1\n      pop\n        /* \"#utility.yul\":6117:6165   */\n      swap2\n      swap1\n      pop\n      jump\t// out\n        /* \"#utility.yul\":6171:6297   */\n    tag_201:\n        /* \"#utility.yul\":6208:6215   */\n      0x00\n        /* \"#utility.yul\":6248:6290   */\n      0xffffffffffffffffffffffffffffffffffffffff\n        /* \"#utility.yul\":6241:6246   */\n      dup3\n        /* \"#utility.yul\":6237:6291   */\n      and\n        /* \"#utility.yul\":6226:6291   */\n      swap1\n      pop\n        /* \"#utility.yul\":6216:6297   */\n      swap2\n      swap1\n      pop\n      jump\t// out\n        /* \"#utility.yul\":6303:6380   */\n    tag_161:\n        /* \"#utility.yul\":6340:6347   */\n      0x00\n        /* \"#utility.yul\":6369:6374   */\n      dup2\n        /* \"#utility.yul\":6358:6374   */\n      swap1\n      pop\n        /* \"#utility.yul\":6348:6380   */\n      swap2\n      swap1\n      pop\n      jump\t// out\n        /* \"#utility.yul\":6386:6540   */\n    tag_115:\n        /* \"#utility.yul\":6470:6476   */\n      dup3\n        /* \"#utility.yul\":6465:6468   */\n      dup2\n        /* \"#utility.yul\":6460:6463   */\n      dup4\n        /* \"#utility.yul\":6447:6477   */\n      calldatacopy\n        /* \"#utility.yul\":6532:6533   */\n      0x00\n        /* \"#utility.yul\":6523:6529   */\n      dup4\n        /* \"#utility.yul\":6518:6521   */\n      dup4\n        /* \"#utility.yul\":6514:6530   */\n      add\n        /* \"#utility.yul\":6507:6534   */\n      mstore\n        /* \"#utility.yul\":6437:6540   */\n      pop\n      pop\n      pop\n      jump\t// out\n        /* \"#utility.yul\":6546:6853   */\n    tag_155:\n        /* \"#utility.yul\":6614:6615   */\n      0x00\n        /* \"#utility.yul\":6624:6737   */\n    tag_207:\n        /* \"#utility.yul\":6638:6644   */\n      dup4\n        /* \"#utility.yul\":6635:6636   */\n      dup2\n        /* \"#utility.yul\":6632:6645   */\n      lt\n        /* \"#utility.yul\":6624:6737   */\n      iszero\n      tag_209\n      jumpi\n        /* \"#utility.yul\":6723:6724   */\n      dup1\n        /* \"#utility.yul\":6718:6721   */\n      dup3\n        /* \"#utility.yul\":6714:6725   */\n      add\n        /* \"#utility.yul\":6708:6726   */\n      mload\n        /* \"#utility.yul\":6704:6705   */\n      dup2\n        /* \"#utility.yul\":6699:6702   */\n      dup5\n        /* \"#utility.yul\":6695:6706   */\n      add\n        /* \"#utility.yul\":6688:6727   */\n      mstore\n        /* \"#utility.yul\":6660:6662   */\n      0x20\n        /* \"#utility.yul\":6657:6658   */\n      dup2\n        /* \"#utility.yul\":6653:6663   */\n      add\n        /* \"#utility.yul\":6648:6663   */\n      swap1\n      pop\n        /* \"#utility.yul\":6624:6737   */\n      jump(tag_207)\n    tag_209:\n        /* \"#utility.yul\":6755:6761   */\n      dup4\n        /* \"#utility.yul\":6752:6753   */\n      dup2\n        /* \"#utility.yul\":6749:6762   */\n      gt\n        /* \"#utility.yul\":6746:6748   */\n      iszero\n      tag_210\n      jumpi\n        /* \"#utility.yul\":6835:6836   */\n      0x00\n        /* \"#utility.yul\":6826:6832   */\n      dup5\n        /* \"#utility.yul\":6821:6824   */\n      dup5\n        /* \"#utility.yul\":6817:6833   */\n      add\n        /* \"#utility.yul\":6810:6837   */\n      mstore\n        /* \"#utility.yul\":6746:6748   */\n    tag_210:\n        /* \"#utility.yul\":6595:6853   */\n      pop\n      pop\n      pop\n      pop\n      jump\t// out\n        /* \"#utility.yul\":6859:7179   */\n    tag_77:\n        /* \"#utility.yul\":6903:6909   */\n      0x00\n        /* \"#utility.yul\":6940:6941   */\n      0x02\n        /* \"#utility.yul\":6934:6938   */\n      dup3\n        /* \"#utility.yul\":6930:6942   */\n      div\n        /* \"#utility.yul\":6920:6942   */\n      swap1\n      pop\n        /* \"#utility.yul\":6987:6988   */\n      0x01\n        /* \"#utility.yul\":6981:6985   */\n      dup3\n        /* \"#utility.yul\":6977:6989   */\n      and\n        /* \"#utility.yul\":7008:7026   */\n      dup1\n        /* \"#utility.yul\":6998:7000   */\n      tag_212\n      jumpi\n        /* \"#utility.yul\":7064:7068   */\n      0x7f\n        /* \"#utility.yul\":7056:7062   */\n      dup3\n        /* \"#utility.yul\":7052:7069   */\n      and\n        /* \"#utility.yul\":7042:7069   */\n      swap2\n      pop\n        /* \"#utility.yul\":6998:7000   */\n    tag_212:\n        /* \"#utility.yul\":7126:7128   */\n      0x20\n        /* \"#utility.yul\":7118:7124   */\n      dup3\n        /* \"#utility.yul\":7115:7129   */\n      lt\n        /* \"#utility.yul\":7095:7113   */\n      dup2\n        /* \"#utility.yul\":7092:7130   */\n      eq\n        /* \"#utility.yul\":7089:7091   */\n      iszero\n      tag_213\n      jumpi\n        /* \"#utility.yul\":7145:7163   */\n      tag_214\n      tag_215\n      jump\t// in\n    tag_214:\n        /* \"#utility.yul\":7089:7091   */\n    tag_213:\n        /* \"#utility.yul\":6910:7179   */\n      pop\n      swap2\n      swap1\n      pop\n      jump\t// out\n        /* \"#utility.yul\":7185:7466   */\n    tag_184:\n        /* \"#utility.yul\":7268:7295   */\n      tag_217\n        /* \"#utility.yul\":7290:7294   */\n      dup3\n        /* \"#utility.yul\":7268:7295   */\n      tag_157\n      jump\t// in\n    tag_217:\n        /* \"#utility.yul\":7260:7266   */\n      dup2\n        /* \"#utility.yul\":7256:7296   */\n      add\n        /* \"#utility.yul\":7398:7404   */\n      dup2\n        /* \"#utility.yul\":7386:7396   */\n      dup2\n        /* \"#utility.yul\":7383:7405   */\n      lt\n        /* \"#utility.yul\":7362:7380   */\n      0xffffffffffffffff\n        /* \"#utility.yul\":7350:7360   */\n      dup3\n        /* \"#utility.yul\":7347:7381   */\n      gt\n        /* \"#utility.yul\":7344:7406   */\n      or\n        /* \"#utility.yul\":7341:7343   */\n      iszero\n      tag_218\n      jumpi\n        /* \"#utility.yul\":7409:7427   */\n      tag_219\n      tag_189\n      jump\t// in\n    tag_219:\n        /* \"#utility.yul\":7341:7343   */\n    tag_218:\n        /* \"#utility.yul\":7449:7459   */\n      dup1\n        /* \"#utility.yul\":7445:7447   */\n      0x40\n        /* \"#utility.yul\":7438:7460   */\n      mstore\n        /* \"#utility.yul\":7228:7466   */\n      pop\n      pop\n      pop\n      jump\t// out\n        /* \"#utility.yul\":7472:7705   */\n    tag_88:\n        /* \"#utility.yul\":7511:7514   */\n      0x00\n        /* \"#utility.yul\":7534:7558   */\n      tag_221\n        /* \"#utility.yul\":7552:7557   */\n      dup3\n        /* \"#utility.yul\":7534:7558   */\n      tag_161\n      jump\t// in\n    tag_221:\n        /* \"#utility.yul\":7525:7558   */\n      swap2\n      pop\n        /* \"#utility.yul\":7580:7646   */\n      0xffffffffffffffffffffffffffffffffffffffffffffffffffffffffffffffff\n        /* \"#utility.yul\":7573:7578   */\n      dup3\n        /* \"#utility.yul\":7570:7647   */\n      eq\n        /* \"#utility.yul\":7567:7569   */\n      iszero\n      tag_222\n      jumpi\n        /* \"#utility.yul\":7650:7668   */\n      tag_223\n      tag_224\n      jump\t// in\n    tag_223:\n        /* \"#utility.yul\":7567:7569   */\n    tag_222:\n        /* \"#utility.yul\":7697:7698   */\n      0x01\n        /* \"#utility.yul\":7690:7695   */\n      dup3\n        /* \"#utility.yul\":7686:7699   */\n      add\n        /* \"#utility.yul\":7679:7699   */\n      swap1\n      pop\n        /* \"#utility.yul\":7515:7705   */\n      swap2\n      swap1\n      pop\n      jump\t// out\n        /* \"#utility.yul\":7711:7891   */\n    tag_224:\n        /* \"#utility.yul\":7759:7836   */\n      0x4e487b7100000000000000000000000000000000000000000000000000000000\n        /* \"#utility.yul\":7756:7757   */\n      0x00\n        /* \"#utility.yul\":7749:7837   */\n      mstore\n        /* \"#utility.yul\":7856:7860   */\n      0x11\n        /* \"#utility.yul\":7853:7854   */\n      0x04\n        /* \"#utility.yul\":7846:7861   */\n      mstore\n        /* \"#utility.yul\":7880:7884   */\n      0x24\n        /* \"#utility.yul\":7877:7878   */\n      0x00\n        /* \"#utility.yul\":7870:7885   */\n      revert\n        /* \"#utility.yul\":7897:8077   */\n    tag_198:\n        /* \"#utility.yul\":7945:8022   */\n      0x4e487b7100000000000000000000000000000000000000000000000000000000\n        /* \"#utility.yul\":7942:7943   */\n      0x00\n        /* \"#utility.yul\":7935:8023   */\n      mstore\n        /* \"#utility.yul\":8042:8046   */\n      0x12\n        /* \"#utility.yul\":8039:8040   */\n      0x04\n        /* \"#utility.yul\":8032:8047   */\n      mstore\n        /* \"#utility.yul\":8066:8070   */\n      0x24\n        /* \"#utility.yul\":8063:8064   */\n      0x00\n        /* \"#utility.yul\":8056:8071   */\n      revert\n        /* \"#utility.yul\":8083:8263   */\n    tag_215:\n        /* \"#utility.yul\":8131:8208   */\n      0x4e487b7100000000000000000000000000000000000000000000000000000000\n        /* \"#utility.yul\":8128:8129   */\n      0x00\n        /* \"#utility.yul\":8121:8209   */\n      mstore\n        /* \"#utility.yul\":8228:8232   */\n      0x22\n        /* \"#utility.yul\":8225:8226   */\n      0x04\n        /* \"#utility.yul\":8218:8233   */\n      mstore\n        /* \"#utility.yul\":8252:8256   */\n      0x24\n        /* \"#utility.yul\":8249:8250   */\n      0x00\n        /* \"#utility.yul\":8242:8257   */\n      revert\n        /* \"#utility.yul\":8269:8449   */\n    tag_189:\n        /* \"#utility.yul\":8317:8394   */\n      0x4e487b7100000000000000000000000000000000000000000000000000000000\n        /* \"#utility.yul\":8314:8315   */\n      0x00\n        /* \"#utility.yul\":8307:8395   */\n      mstore\n        /* \"#utility.yul\":8414:8418   */\n      0x41\n        /* \"#utility.yul\":8411:8412   */\n      0x04\n        /* \"#utility.yul\":8404:8419   */\n      mstore\n        /* \"#utility.yul\":8438:8442   */\n      0x24\n        /* \"#utility.yul\":8435:8436   */\n      0x00\n        /* \"#utility.yul\":8428:8443   */\n      revert\n        /* \"#utility.yul\":8455:8557   */\n    tag_157:\n        /* \"#utility.yul\":8496:8502   */\n      0x00\n        /* \"#utility.yul\":8547:8549   */\n      0x1f\n        /* \"#utility.yul\":8543:8550   */\n      not\n        /* \"#utility.yul\":8538:8540   */\n      0x1f\n        /* \"#utility.yul\":8531:8536   */\n      dup4\n        /* \"#utility.yul\":8527:8541   */\n      add\n        /* \"#utility.yul\":8523:8551   */\n      and\n        /* \"#utility.yul\":8513:8551   */\n      swap1\n      pop\n        /* \"#utility.yul\":8503:8557   */\n      swap2\n      swap1\n      pop\n      jump\t// out\n        /* \"#utility.yul\":8563:8685   */\n    tag_119:\n        /* \"#utility.yul\":8636:8660   */\n      tag_231\n        /* \"#utility.yul\":8654:8659   */\n      dup2\n        /* \"#utility.yul\":8636:8660   */\n      tag_143\n      jump\t// in\n    tag_231:\n        /* \"#utility.yul\":8629:8634   */\n      dup2\n        /* \"#utility.yul\":8626:8661   */\n      eq\n        /* \"#utility.yul\":8616:8618   */\n      tag_232\n      jumpi\n        /* \"#utility.yul\":8675:8676   */\n      0x00\n        /* \"#utility.yul\":8672:8673   */\n      dup1\n        /* \"#utility.yul\":8665:8677   */\n      revert\n        /* \"#utility.yul\":8616:8618   */\n    tag_232:\n        /* \"#utility.yul\":8606:8685   */\n      pop\n      jump\t// out\n        /* \"#utility.yul\":8691:8813   */\n    tag_127:\n        /* \"#utility.yul\":8764:8788   */\n      tag_234\n        /* \"#utility.yul\":8782:8787   */\n      dup2\n        /* \"#utility.yul\":8764:8788   */\n      tag_161\n      jump\t// in\n    tag_234:\n        /* \"#utility.yul\":8757:8762   */\n      dup2\n        /* \"#utility.yul\":8754:8789   */\n      eq\n        /* \"#utility.yul\":8744:8746   */\n      tag_235\n      jumpi\n        /* \"#utility.yul\":8803:8804   */\n      0x00\n        /* \"#utility.yul\":8800:8801   */\n      dup1\n        /* \"#utility.yul\":8793:8805   */\n      revert\n        /* \"#utility.yul\":8744:8746   */\n    tag_235:\n        /* \"#utility.yul\":8734:8813   */\n      pop\n      jump\t// out\n\n    auxdata: 0xa26469706673582212205c0e9772780b9fe2031b48a71bf8326b92e4e04058b389fe4c3eb7b8ba25e9d264736f6c63430008040033\n}\n","bytecode":{"linkReferences":{},"object":"60806040523480156200001157600080fd5b5060405162000fe038038062000fe08339818101604052810190620000379190620000b4565b806000806101000a81548173ffffffffffffffffffffffffffffffffffffffff021916908373ffffffffffffffffffffffffffffffffffffffff16021790555081600181905550505062000167565b600081519050620000978162000133565b92915050565b600081519050620000ae816200014d565b92915050565b60008060408385031215620000c857600080fd5b6000620000d8858286016200009d565b9250506020620000eb8582860162000086565b9150509250929050565b6000620001028262000109565b9050919050565b600073ffffffffffffffffffffffffffffffffffffffff82169050919050565b6000819050919050565b6200013e81620000f5565b81146200014a57600080fd5b50565b620001588162000129565b81146200016457600080fd5b50565b610e6980620001776000396000f3fe60806040526004361061009c5760003560e01c806381d12c581161006457806381d12c581461018c57806382fde093146101cd5780638a9cfd55146101f8578063937e09b114610221578063d7bb99ba1461024c578063d7d1bbdb146102565761009c565b806303441006146100a15780630a144391146100ca5780634051ddac14610107578063481c6a75146101365780635badbe4c14610161575b600080fd5b3480156100ad57600080fd5b506100c860048036038101906100c391906109d2565b61027f565b005b3480156100d657600080fd5b506100f160048036038101906100ec9190610942565b6103b8565b6040516100fe9190610a7c565b60405180910390f35b34801561011357600080fd5b5061011c6103d8565b60405161012d959493929190610b0c565b60405180910390f35b34801561014257600080fd5b5061014b61041c565b6040516101589190610a61565b60405180910390f35b34801561016d57600080fd5b50610176610440565b6040516101839190610af1565b60405180910390f35b34801561019857600080fd5b506101b360048036038101906101ae91906109d2565b610446565b6040516101c4959493929190610a97565b60405180910390f35b3480156101d957600080fd5b506101e2610531565b6040516101ef9190610af1565b60405180910390f35b34801561020457600080fd5b5061021f600480360381019061021a919061096b565b610537565b005b34801561022d57600080fd5b50610236610648565b6040516102439190610af1565b60405180910390f35b61025461064e565b005b34801561026257600080fd5b5061027d600480360381019061027891906109d2565b6106cf565b005b60008054906101000a900473ffffffffffffffffffffffffffffffffffffffff1673ffffffffffffffffffffffffffffffffffffffff163373ffffffffffffffffffffffffffffffffffffffff16146102d757600080fd5b60006003600083815260200190815260200160002090508060020160149054906101000a900460ff161561030a57600080fd5b60026005546103199190610bd1565b81600301541161032857600080fd5b8060020160009054906101000a900473ffffffffffffffffffffffffffffffffffffffff1673ffffffffffffffffffffffffffffffffffffffff166108fc82600101549081150290604051600060405180830381858888f19350505050158015610396573d6000803e3d6000fd5b5060018160020160146101000a81548160ff0219169083151502179055505050565b60026020528060005260406000206000915054906101000a900460ff1681565b60008060008060006001544760045460055460008054906101000a900473ffffffffffffffffffffffffffffffffffffffff16945094509450945094509091929394565b60008054906101000a900473ffffffffffffffffffffffffffffffffffffffff1681565b60045481565b600360205280600052604060002060009150905080600001805461046990610c8c565b80601f016020809104026020016040519081016040528092919081815260200182805461049590610c8c565b80156104e25780601f106104b7576101008083540402835291602001916104e2565b820191906000526020600020905b8154815290600101906020018083116104c557829003601f168201915b5050505050908060010154908060020160009054906101000a900473ffffffffffffffffffffffffffffffffffffffff16908060020160149054906101000a900460ff16908060030154905085565b60055481565b60008054906101000a900473ffffffffffffffffffffffffffffffffffffffff1673ffffffffffffffffffffffffffffffffffffffff163373ffffffffffffffffffffffffffffffffffffffff161461058f57600080fd5b60006003600060045481526020019081526020016000209050838160000190805190602001906105c092919061080d565b50828160010181905550818160020160006101000a81548173ffffffffffffffffffffffffffffffffffffffff021916908373ffffffffffffffffffffffffffffffffffffffff16021790555060008160020160146101000a81548160ff0219169083151502179055506004600081548092919061063d90610cef565b919050555050505050565b60015481565b60015434101561065d57600080fd5b6001600260003373ffffffffffffffffffffffffffffffffffffffff1673ffffffffffffffffffffffffffffffffffffffff16815260200190815260200160002060006101000a81548160ff021916908315150217905550600560008154809291906106c890610cef565b9190505550565b6000600360008381526020019081526020016000209050600260003373ffffffffffffffffffffffffffffffffffffffff1673ffffffffffffffffffffffffffffffffffffffff16815260200190815260200160002060009054906101000a900460ff1661073c57600080fd5b8060040160003373ffffffffffffffffffffffffffffffffffffffff1673ffffffffffffffffffffffffffffffffffffffff16815260200190815260200160002060009054906101000a900460ff161561079557600080fd5b60018160040160003373ffffffffffffffffffffffffffffffffffffffff1673ffffffffffffffffffffffffffffffffffffffff16815260200190815260200160002060006101000a81548160ff02191690831515021790555080600301600081548092919061080490610cef565b91905055505050565b82805461081990610c8c565b90600052602060002090601f01602090048101928261083b5760008555610882565b82601f1061085457805160ff1916838001178555610882565b82800160010185558215610882579182015b82811115610881578251825591602001919060010190610866565b5b50905061088f9190610893565b5090565b5b808211156108ac576000816000905550600101610894565b5090565b60006108c36108be84610b84565b610b5f565b9050828152602081018484840111156108db57600080fd5b6108e6848285610c4a565b509392505050565b6000813590506108fd81610e05565b92915050565b600082601f83011261091457600080fd5b81356109248482602086016108b0565b91505092915050565b60008135905061093c81610e1c565b92915050565b60006020828403121561095457600080fd5b6000610962848285016108ee565b91505092915050565b60008060006060848603121561098057600080fd5b600084013567ffffffffffffffff81111561099a57600080fd5b6109a686828701610903565b93505060206109b78682870161092d565b92505060406109c8868287016108ee565b9150509250925092565b6000602082840312156109e457600080fd5b60006109f28482850161092d565b91505092915050565b610a0481610c02565b82525050565b610a1381610c14565b82525050565b6000610a2482610bb5565b610a2e8185610bc0565b9350610a3e818560208601610c59565b610a4781610df4565b840191505092915050565b610a5b81610c40565b82525050565b6000602082019050610a7660008301846109fb565b92915050565b6000602082019050610a916000830184610a0a565b92915050565b600060a0820190508181036000830152610ab18188610a19565b9050610ac06020830187610a52565b610acd60408301866109fb565b610ada6060830185610a0a565b610ae76080830184610a52565b9695505050505050565b6000602082019050610b066000830184610a52565b92915050565b600060a082019050610b216000830188610a52565b610b2e6020830187610a52565b610b3b6040830186610a52565b610b486060830185610a52565b610b5560808301846109fb565b9695505050505050565b6000610b69610b7a565b9050610b758282610cbe565b919050565b6000604051905090565b600067ffffffffffffffff821115610b9f57610b9e610dc5565b5b610ba882610df4565b9050602081019050919050565b600081519050919050565b600082825260208201905092915050565b6000610bdc82610c40565b9150610be783610c40565b925082610bf757610bf6610d67565b5b828204905092915050565b6000610c0d82610c20565b9050919050565b60008115159050919050565b600073ffffffffffffffffffffffffffffffffffffffff82169050919050565b6000819050919050565b82818337600083830152505050565b60005b83811015610c77578082015181840152602081019050610c5c565b83811115610c86576000848401525b50505050565b60006002820490506001821680610ca457607f821691505b60208210811415610cb857610cb7610d96565b5b50919050565b610cc782610df4565b810181811067ffffffffffffffff82111715610ce657610ce5610dc5565b5b80604052505050565b6000610cfa82610c40565b91507fffffffffffffffffffffffffffffffffffffffffffffffffffffffffffffffff821415610d2d57610d2c610d38565b5b600182019050919050565b7f4e487b7100000000000000000000000000000000000000000000000000000000600052601160045260246000fd5b7f4e487b7100000000000000000000000000000000000000000000000000000000600052601260045260246000fd5b7f4e487b7100000000000000000000000000000000000000000000000000000000600052602260045260246000fd5b7f4e487b7100000000000000000000000000000000000000000000000000000000600052604160045260246000fd5b6000601f19601f8301169050919050565b610e0e81610c02565b8114610e1957600080fd5b50565b610e2581610c40565b8114610e3057600080fd5b5056fea26469706673582212205c0e9772780b9fe2031b48a71bf8326b92e4e04058b389fe4c3eb7b8ba25e9d264736f6c63430008040033","opcodes":"PUSH1 0x80 PUSH1 0x40 MSTORE CALLVALUE DUP1 ISZERO PUSH3 0x11 JUMPI PUSH1 0x0 DUP1 REVERT JUMPDEST POP PUSH1 0x40 MLOAD PUSH3 0xFE0 CODESIZE SUB DUP1 PUSH3 0xFE0 DUP4 CODECOPY DUP2 DUP2 ADD PUSH1 0x40 MSTORE DUP2 ADD SWAP1 PUSH3 0x37 SWAP2 SWAP1 PUSH3 0xB4 JUMP JUMPDEST DUP1 PUSH1 0x0 DUP1 PUSH2 0x100 EXP DUP2 SLOAD DUP2 PUSH20 0xFFFFFFFFFFFFFFFFFFFFFFFFFFFFFFFFFFFFFFFF MUL NOT AND SWAP1 DUP4 PUSH20 0xFFFFFFFFFFFFFFFFFFFFFFFFFFFFFFFFFFFFFFFF AND MUL OR SWAP1 SSTORE POP DUP2 PUSH1 0x1 DUP2 SWAP1 SSTORE POP POP POP PUSH3 0x167 JUMP JUMPDEST PUSH1 0x0 DUP2 MLOAD SWAP1 POP PUSH3 0x97 DUP2 PUSH3 0x133 JUMP JUMPDEST SWAP3 SWAP2 POP POP JUMP JUMPDEST PUSH1 0x0 DUP2 MLOAD SWAP1 POP PUSH3 0xAE DUP2 PUSH3 0x14D JUMP JUMPDEST SWAP3 SWAP2 POP POP JUMP JUMPDEST PUSH1 0x0 DUP1 PUSH1 0x40 DUP4 DUP6 SUB SLT ISZERO PUSH3 0xC8 JUMPI PUSH1 0x0 DUP1 REVERT JUMPDEST PUSH1 0x0 PUSH3 0xD8 DUP6 DUP3 DUP7 ADD PUSH3 0x9D JUMP JUMPDEST SWAP3 POP POP PUSH1 0x20 PUSH3 0xEB DUP6 DUP3 DUP7 ADD PUSH3 0x86 JUMP JUMPDEST SWAP2 POP POP SWAP3 POP SWAP3 SWAP1 POP JUMP JUMPDEST PUSH1 0x0 PUSH3 0x102 DUP3 PUSH3 0x109 JUMP JUMPDEST SWAP1 POP SWAP2 SWAP1 POP JUMP JUMPDEST PUSH1 0x0 PUSH20 0xFFFFFFFFFFFFFFFFFFFFFFFFFFFFFFFFFFFFFFFF DUP3 AND SWAP1 POP SWAP2 SWAP1 POP JUMP JUMPDEST PUSH1 0x0 DUP2 SWAP1 POP SWAP2 SWAP1 POP JUMP JUMPDEST PUSH3 0x13E DUP2 PUSH3 0xF5 JUMP JUMPDEST DUP2 EQ PUSH3 0x14A JUMPI PUSH1 0x0 DUP1 REVERT JUMPDEST POP JUMP JUMPDEST PUSH3 0x158 DUP2 PUSH3 0x129 JUMP JUMPDEST DUP2 EQ PUSH3 0x164 JUMPI PUSH1 0x0 DUP1 REVERT JUMPDEST POP JUMP JUMPDEST PUSH2 0xE69 DUP1 PUSH3 0x177 PUSH1 0x0 CODECOPY PUSH1 0x0 RETURN INVALID PUSH1 0x80 PUSH1 0x40 MSTORE PUSH1 0x4 CALLDATASIZE LT PUSH2 0x9C JUMPI PUSH1 0x0 CALLDATALOAD PUSH1 0xE0 SHR DUP1 PUSH4 0x81D12C58 GT PUSH2 0x64 JUMPI DUP1 PUSH4 0x81D12C58 EQ PUSH2 0x18C JUMPI DUP1 PUSH4 0x82FDE093 EQ PUSH2 0x1CD JUMPI DUP1 PUSH4 0x8A9CFD55 EQ PUSH2 0x1F8 JUMPI DUP1 PUSH4 0x937E09B1 EQ PUSH2 0x221 JUMPI DUP1 PUSH4 0xD7BB99BA EQ PUSH2 0x24C JUMPI DUP1 PUSH4 0xD7D1BBDB EQ PUSH2 0x256 JUMPI PUSH2 0x9C JUMP JUMPDEST DUP1 PUSH4 0x3441006 EQ PUSH2 0xA1 JUMPI DUP1 PUSH4 0xA144391 EQ PUSH2 0xCA JUMPI DUP1 PUSH4 0x4051DDAC EQ PUSH2 0x107 JUMPI DUP1 PUSH4 0x481C6A75 EQ PUSH2 0x136 JUMPI DUP1 PUSH4 0x5BADBE4C EQ PUSH2 0x161 JUMPI JUMPDEST PUSH1 0x0 DUP1 REVERT JUMPDEST CALLVALUE DUP1 ISZERO PUSH2 0xAD JUMPI PUSH1 0x0 DUP1 REVERT JUMPDEST POP PUSH2 0xC8 PUSH1 0x4 DUP1 CALLDATASIZE SUB DUP2 ADD SWAP1 PUSH2 0xC3 SWAP2 SWAP1 PUSH2 0x9D2 JUMP JUMPDEST PUSH2 0x27F JUMP JUMPDEST STOP JUMPDEST CALLVALUE DUP1 ISZERO PUSH2 0xD6 JUMPI PUSH1 0x0 DUP1 REVERT JUMPDEST POP PUSH2 0xF1 PUSH1 0x4 DUP1 CALLDATASIZE SUB DUP2 ADD SWAP1 PUSH2 0xEC SWAP2 SWAP1 PUSH2 0x942 JUMP JUMPDEST PUSH2 0x3B8 JUMP JUMPDEST PUSH1 0x40 MLOAD PUSH2 0xFE SWAP2 SWAP1 PUSH2 0xA7C JUMP JUMPDEST PUSH1 0x40 MLOAD DUP1 SWAP2 SUB SWAP1 RETURN JUMPDEST CALLVALUE DUP1 ISZERO PUSH2 0x113 JUMPI PUSH1 0x0 DUP1 REVERT JUMPDEST POP PUSH2 0x11C PUSH2 0x3D8 JUMP JUMPDEST PUSH1 0x40 MLOAD PUSH2 0x12D SWAP6 SWAP5 SWAP4 SWAP3 SWAP2 SWAP1 PUSH2 0xB0C JUMP JUMPDEST PUSH1 0x40 MLOAD DUP1 SWAP2 SUB SWAP1 RETURN JUMPDEST CALLVALUE DUP1 ISZERO PUSH2 0x142 JUMPI PUSH1 0x0 DUP1 REVERT JUMPDEST POP PUSH2 0x14B PUSH2 0x41C JUMP JUMPDEST PUSH1 0x40 MLOAD PUSH2 0x158 SWAP2 SWAP1 PUSH2 0xA61 JUMP JUMPDEST PUSH1 0x40 MLOAD DUP1 SWAP2 SUB SWAP1 RETURN JUMPDEST CALLVALUE DUP1 ISZERO PUSH2 0x16D JUMPI PUSH1 0x0 DUP1 REVERT JUMPDEST POP PUSH2 0x176 PUSH2 0x440 JUMP JUMPDEST PUSH1 0x40 MLOAD PUSH2 0x183 SWAP2 SWAP1 PUSH2 0xAF1 JUMP JUMPDEST PUSH1 0x40 MLOAD DUP1 SWAP2 SUB SWAP1 RETURN JUMPDEST CALLVALUE DUP1 ISZERO PUSH2 0x198 JUMPI PUSH1 0x0 DUP1 REVERT JUMPDEST POP PUSH2 0x1B3 PUSH1 0x4 DUP1 CALLDATASIZE SUB DUP2 ADD SWAP1 PUSH2 0x1AE SWAP2 SWAP1 PUSH2 0x9D2 JUMP JUMPDEST PUSH2 0x446 JUMP JUMPDEST PUSH1 0x40 MLOAD PUSH2 0x1C4 SWAP6 SWAP5 SWAP4 SWAP3 SWAP2 SWAP1 PUSH2 0xA97 JUMP JUMPDEST PUSH1 0x40 MLOAD DUP1 SWAP2 SUB SWAP1 RETURN JUMPDEST CALLVALUE DUP1 ISZERO PUSH2 0x1D9 JUMPI PUSH1 0x0 DUP1 REVERT JUMPDEST POP PUSH2 0x1E2 PUSH2 0x531 JUMP JUMPDEST PUSH1 0x40 MLOAD PUSH2 0x1EF SWAP2 SWAP1 PUSH2 0xAF1 JUMP JUMPDEST PUSH1 0x40 MLOAD DUP1 SWAP2 SUB SWAP1 RETURN JUMPDEST CALLVALUE DUP1 ISZERO PUSH2 0x204 JUMPI PUSH1 0x0 DUP1 REVERT JUMPDEST POP PUSH2 0x21F PUSH1 0x4 DUP1 CALLDATASIZE SUB DUP2 ADD SWAP1 PUSH2 0x21A SWAP2 SWAP1 PUSH2 0x96B JUMP JUMPDEST PUSH2 0x537 JUMP JUMPDEST STOP JUMPDEST CALLVALUE DUP1 ISZERO PUSH2 0x22D JUMPI PUSH1 0x0 DUP1 REVERT JUMPDEST POP PUSH2 0x236 PUSH2 0x648 JUMP JUMPDEST PUSH1 0x40 MLOAD PUSH2 0x243 SWAP2 SWAP1 PUSH2 0xAF1 JUMP JUMPDEST PUSH1 0x40 MLOAD DUP1 SWAP2 SUB SWAP1 RETURN JUMPDEST PUSH2 0x254 PUSH2 0x64E JUMP JUMPDEST STOP JUMPDEST CALLVALUE DUP1 ISZERO PUSH2 0x262 JUMPI PUSH1 0x0 DUP1 REVERT JUMPDEST POP PUSH2 0x27D PUSH1 0x4 DUP1 CALLDATASIZE SUB DUP2 ADD SWAP1 PUSH2 0x278 SWAP2 SWAP1 PUSH2 0x9D2 JUMP JUMPDEST PUSH2 0x6CF JUMP JUMPDEST STOP JUMPDEST PUSH1 0x0 DUP1 SLOAD SWAP1 PUSH2 0x100 EXP SWAP1 DIV PUSH20 0xFFFFFFFFFFFFFFFFFFFFFFFFFFFFFFFFFFFFFFFF AND PUSH20 0xFFFFFFFFFFFFFFFFFFFFFFFFFFFFFFFFFFFFFFFF AND CALLER PUSH20 0xFFFFFFFFFFFFFFFFFFFFFFFFFFFFFFFFFFFFFFFF AND EQ PUSH2 0x2D7 JUMPI PUSH1 0x0 DUP1 REVERT JUMPDEST PUSH1 0x0 PUSH1 0x3 PUSH1 0x0 DUP4 DUP2 MSTORE PUSH1 0x20 ADD SWAP1 DUP2 MSTORE PUSH1 0x20 ADD PUSH1 0x0 KECCAK256 SWAP1 POP DUP1 PUSH1 0x2 ADD PUSH1 0x14 SWAP1 SLOAD SWAP1 PUSH2 0x100 EXP SWAP1 DIV PUSH1 0xFF AND ISZERO PUSH2 0x30A JUMPI PUSH1 0x0 DUP1 REVERT JUMPDEST PUSH1 0x2 PUSH1 0x5 SLOAD PUSH2 0x319 SWAP2 SWAP1 PUSH2 0xBD1 JUMP JUMPDEST DUP2 PUSH1 0x3 ADD SLOAD GT PUSH2 0x328 JUMPI PUSH1 0x0 DUP1 REVERT JUMPDEST DUP1 PUSH1 0x2 ADD PUSH1 0x0 SWAP1 SLOAD SWAP1 PUSH2 0x100 EXP SWAP1 DIV PUSH20 0xFFFFFFFFFFFFFFFFFFFFFFFFFFFFFFFFFFFFFFFF AND PUSH20 0xFFFFFFFFFFFFFFFFFFFFFFFFFFFFFFFFFFFFFFFF AND PUSH2 0x8FC DUP3 PUSH1 0x1 ADD SLOAD SWAP1 DUP2 ISZERO MUL SWAP1 PUSH1 0x40 MLOAD PUSH1 0x0 PUSH1 0x40 MLOAD DUP1 DUP4 SUB DUP2 DUP6 DUP9 DUP9 CALL SWAP4 POP POP POP POP ISZERO DUP1 ISZERO PUSH2 0x396 JUMPI RETURNDATASIZE PUSH1 0x0 DUP1 RETURNDATACOPY RETURNDATASIZE PUSH1 0x0 REVERT JUMPDEST POP PUSH1 0x1 DUP2 PUSH1 0x2 ADD PUSH1 0x14 PUSH2 0x100 EXP DUP2 SLOAD DUP2 PUSH1 0xFF MUL NOT AND SWAP1 DUP4 ISZERO ISZERO MUL OR SWAP1 SSTORE POP POP POP JUMP JUMPDEST PUSH1 0x2 PUSH1 0x20 MSTORE DUP1 PUSH1 0x0 MSTORE PUSH1 0x40 PUSH1 0x0 KECCAK256 PUSH1 0x0 SWAP2 POP SLOAD SWAP1 PUSH2 0x100 EXP SWAP1 DIV PUSH1 0xFF AND DUP2 JUMP JUMPDEST PUSH1 0x0 DUP1 PUSH1 0x0 DUP1 PUSH1 0x0 PUSH1 0x1 SLOAD SELFBALANCE PUSH1 0x4 SLOAD PUSH1 0x5 SLOAD PUSH1 0x0 DUP1 SLOAD SWAP1 PUSH2 0x100 EXP SWAP1 DIV PUSH20 0xFFFFFFFFFFFFFFFFFFFFFFFFFFFFFFFFFFFFFFFF AND SWAP5 POP SWAP5 POP SWAP5 POP SWAP5 POP SWAP5 POP SWAP1 SWAP2 SWAP3 SWAP4 SWAP5 JUMP JUMPDEST PUSH1 0x0 DUP1 SLOAD SWAP1 PUSH2 0x100 EXP SWAP1 DIV PUSH20 0xFFFFFFFFFFFFFFFFFFFFFFFFFFFFFFFFFFFFFFFF AND DUP2 JUMP JUMPDEST PUSH1 0x4 SLOAD DUP2 JUMP JUMPDEST PUSH1 0x3 PUSH1 0x20 MSTORE DUP1 PUSH1 0x0 MSTORE PUSH1 0x40 PUSH1 0x0 KECCAK256 PUSH1 0x0 SWAP2 POP SWAP1 POP DUP1 PUSH1 0x0 ADD DUP1 SLOAD PUSH2 0x469 SWAP1 PUSH2 0xC8C JUMP JUMPDEST DUP1 PUSH1 0x1F ADD PUSH1 0x20 DUP1 SWAP2 DIV MUL PUSH1 0x20 ADD PUSH1 0x40 MLOAD SWAP1 DUP2 ADD PUSH1 0x40 MSTORE DUP1 SWAP3 SWAP2 SWAP1 DUP2 DUP2 MSTORE PUSH1 0x20 ADD DUP3 DUP1 SLOAD PUSH2 0x495 SWAP1 PUSH2 0xC8C JUMP JUMPDEST DUP1 ISZERO PUSH2 0x4E2 JUMPI DUP1 PUSH1 0x1F LT PUSH2 0x4B7 JUMPI PUSH2 0x100 DUP1 DUP4 SLOAD DIV MUL DUP4 MSTORE SWAP2 PUSH1 0x20 ADD SWAP2 PUSH2 0x4E2 JUMP JUMPDEST DUP3 ADD SWAP2 SWAP1 PUSH1 0x0 MSTORE PUSH1 0x20 PUSH1 0x0 KECCAK256 SWAP1 JUMPDEST DUP2 SLOAD DUP2 MSTORE SWAP1 PUSH1 0x1 ADD SWAP1 PUSH1 0x20 ADD DUP1 DUP4 GT PUSH2 0x4C5 JUMPI DUP3 SWAP1 SUB PUSH1 0x1F AND DUP3 ADD SWAP2 JUMPDEST POP POP POP POP POP SWAP1 DUP1 PUSH1 0x1 ADD SLOAD SWAP1 DUP1 PUSH1 0x2 ADD PUSH1 0x0 SWAP1 SLOAD SWAP1 PUSH2 0x100 EXP SWAP1 DIV PUSH20 0xFFFFFFFFFFFFFFFFFFFFFFFFFFFFFFFFFFFFFFFF AND SWAP1 DUP1 PUSH1 0x2 ADD PUSH1 0x14 SWAP1 SLOAD SWAP1 PUSH2 0x100 EXP SWAP1 DIV PUSH1 0xFF AND SWAP1 DUP1 PUSH1 0x3 ADD SLOAD SWAP1 POP DUP6 JUMP JUMPDEST PUSH1 0x5 SLOAD DUP2 JUMP JUMPDEST PUSH1 0x0 DUP1 SLOAD SWAP1 PUSH2 0x100 EXP SWAP1 DIV PUSH20 0xFFFFFFFFFFFFFFFFFFFFFFFFFFFFFFFFFFFFFFFF AND PUSH20 0xFFFFFFFFFFFFFFFFFFFFFFFFFFFFFFFFFFFFFFFF AND CALLER PUSH20 0xFFFFFFFFFFFFFFFFFFFFFFFFFFFFFFFFFFFFFFFF AND EQ PUSH2 0x58F JUMPI PUSH1 0x0 DUP1 REVERT JUMPDEST PUSH1 0x0 PUSH1 0x3 PUSH1 0x0 PUSH1 0x4 SLOAD DUP2 MSTORE PUSH1 0x20 ADD SWAP1 DUP2 MSTORE PUSH1 0x20 ADD PUSH1 0x0 KECCAK256 SWAP1 POP DUP4 DUP2 PUSH1 0x0 ADD SWAP1 DUP1 MLOAD SWAP1 PUSH1 0x20 ADD SWAP1 PUSH2 0x5C0 SWAP3 SWAP2 SWAP1 PUSH2 0x80D JUMP JUMPDEST POP DUP3 DUP2 PUSH1 0x1 ADD DUP2 SWAP1 SSTORE POP DUP2 DUP2 PUSH1 0x2 ADD PUSH1 0x0 PUSH2 0x100 EXP DUP2 SLOAD DUP2 PUSH20 0xFFFFFFFFFFFFFFFFFFFFFFFFFFFFFFFFFFFFFFFF MUL NOT AND SWAP1 DUP4 PUSH20 0xFFFFFFFFFFFFFFFFFFFFFFFFFFFFFFFFFFFFFFFF AND MUL OR SWAP1 SSTORE POP PUSH1 0x0 DUP2 PUSH1 0x2 ADD PUSH1 0x14 PUSH2 0x100 EXP DUP2 SLOAD DUP2 PUSH1 0xFF MUL NOT AND SWAP1 DUP4 ISZERO ISZERO MUL OR SWAP1 SSTORE POP PUSH1 0x4 PUSH1 0x0 DUP2 SLOAD DUP1 SWAP3 SWAP2 SWAP1 PUSH2 0x63D SWAP1 PUSH2 0xCEF JUMP JUMPDEST SWAP2 SWAP1 POP SSTORE POP POP POP POP POP JUMP JUMPDEST PUSH1 0x1 SLOAD DUP2 JUMP JUMPDEST PUSH1 0x1 SLOAD CALLVALUE LT ISZERO PUSH2 0x65D JUMPI PUSH1 0x0 DUP1 REVERT JUMPDEST PUSH1 0x1 PUSH1 0x2 PUSH1 0x0 CALLER PUSH20 0xFFFFFFFFFFFFFFFFFFFFFFFFFFFFFFFFFFFFFFFF AND PUSH20 0xFFFFFFFFFFFFFFFFFFFFFFFFFFFFFFFFFFFFFFFF AND DUP2 MSTORE PUSH1 0x20 ADD SWAP1 DUP2 MSTORE PUSH1 0x20 ADD PUSH1 0x0 KECCAK256 PUSH1 0x0 PUSH2 0x100 EXP DUP2 SLOAD DUP2 PUSH1 0xFF MUL NOT AND SWAP1 DUP4 ISZERO ISZERO MUL OR SWAP1 SSTORE POP PUSH1 0x5 PUSH1 0x0 DUP2 SLOAD DUP1 SWAP3 SWAP2 SWAP1 PUSH2 0x6C8 SWAP1 PUSH2 0xCEF JUMP JUMPDEST SWAP2 SWAP1 POP SSTORE POP JUMP JUMPDEST PUSH1 0x0 PUSH1 0x3 PUSH1 0x0 DUP4 DUP2 MSTORE PUSH1 0x20 ADD SWAP1 DUP2 MSTORE PUSH1 0x20 ADD PUSH1 0x0 KECCAK256 SWAP1 POP PUSH1 0x2 PUSH1 0x0 CALLER PUSH20 0xFFFFFFFFFFFFFFFFFFFFFFFFFFFFFFFFFFFFFFFF AND PUSH20 0xFFFFFFFFFFFFFFFFFFFFFFFFFFFFFFFFFFFFFFFF AND DUP2 MSTORE PUSH1 0x20 ADD SWAP1 DUP2 MSTORE PUSH1 0x20 ADD PUSH1 0x0 KECCAK256 PUSH1 0x0 SWAP1 SLOAD SWAP1 PUSH2 0x100 EXP SWAP1 DIV PUSH1 0xFF AND PUSH2 0x73C JUMPI PUSH1 0x0 DUP1 REVERT JUMPDEST DUP1 PUSH1 0x4 ADD PUSH1 0x0 CALLER PUSH20 0xFFFFFFFFFFFFFFFFFFFFFFFFFFFFFFFFFFFFFFFF AND PUSH20 0xFFFFFFFFFFFFFFFFFFFFFFFFFFFFFFFFFFFFFFFF AND DUP2 MSTORE PUSH1 0x20 ADD SWAP1 DUP2 MSTORE PUSH1 0x20 ADD PUSH1 0x0 KECCAK256 PUSH1 0x0 SWAP1 SLOAD SWAP1 PUSH2 0x100 EXP SWAP1 DIV PUSH1 0xFF AND ISZERO PUSH2 0x795 JUMPI PUSH1 0x0 DUP1 REVERT JUMPDEST PUSH1 0x1 DUP2 PUSH1 0x4 ADD PUSH1 0x0 CALLER PUSH20 0xFFFFFFFFFFFFFFFFFFFFFFFFFFFFFFFFFFFFFFFF AND PUSH20 0xFFFFFFFFFFFFFFFFFFFFFFFFFFFFFFFFFFFFFFFF AND DUP2 MSTORE PUSH1 0x20 ADD SWAP1 DUP2 MSTORE PUSH1 0x20 ADD PUSH1 0x0 KECCAK256 PUSH1 0x0 PUSH2 0x100 EXP DUP2 SLOAD DUP2 PUSH1 0xFF MUL NOT AND SWAP1 DUP4 ISZERO ISZERO MUL OR SWAP1 SSTORE POP DUP1 PUSH1 0x3 ADD PUSH1 0x0 DUP2 SLOAD DUP1 SWAP3 SWAP2 SWAP1 PUSH2 0x804 SWAP1 PUSH2 0xCEF JUMP JUMPDEST SWAP2 SWAP1 POP SSTORE POP POP POP JUMP JUMPDEST DUP3 DUP1 SLOAD PUSH2 0x819 SWAP1 PUSH2 0xC8C JUMP JUMPDEST SWAP1 PUSH1 0x0 MSTORE PUSH1 0x20 PUSH1 0x0 KECCAK256 SWAP1 PUSH1 0x1F ADD PUSH1 0x20 SWAP1 DIV DUP2 ADD SWAP3 DUP3 PUSH2 0x83B JUMPI PUSH1 0x0 DUP6 SSTORE PUSH2 0x882 JUMP JUMPDEST DUP3 PUSH1 0x1F LT PUSH2 0x854 JUMPI DUP1 MLOAD PUSH1 0xFF NOT AND DUP4 DUP1 ADD OR DUP6 SSTORE PUSH2 0x882 JUMP JUMPDEST DUP3 DUP1 ADD PUSH1 0x1 ADD DUP6 SSTORE DUP3 ISZERO PUSH2 0x882 JUMPI SWAP2 DUP3 ADD JUMPDEST DUP3 DUP2 GT ISZERO PUSH2 0x881 JUMPI DUP3 MLOAD DUP3 SSTORE SWAP2 PUSH1 0x20 ADD SWAP2 SWAP1 PUSH1 0x1 ADD SWAP1 PUSH2 0x866 JUMP JUMPDEST JUMPDEST POP SWAP1 POP PUSH2 0x88F SWAP2 SWAP1 PUSH2 0x893 JUMP JUMPDEST POP SWAP1 JUMP JUMPDEST JUMPDEST DUP1 DUP3 GT ISZERO PUSH2 0x8AC JUMPI PUSH1 0x0 DUP2 PUSH1 0x0 SWAP1 SSTORE POP PUSH1 0x1 ADD PUSH2 0x894 JUMP JUMPDEST POP SWAP1 JUMP JUMPDEST PUSH1 0x0 PUSH2 0x8C3 PUSH2 0x8BE DUP5 PUSH2 0xB84 JUMP JUMPDEST PUSH2 0xB5F JUMP JUMPDEST SWAP1 POP DUP3 DUP2 MSTORE PUSH1 0x20 DUP2 ADD DUP5 DUP5 DUP5 ADD GT ISZERO PUSH2 0x8DB JUMPI PUSH1 0x0 DUP1 REVERT JUMPDEST PUSH2 0x8E6 DUP5 DUP3 DUP6 PUSH2 0xC4A JUMP JUMPDEST POP SWAP4 SWAP3 POP POP POP JUMP JUMPDEST PUSH1 0x0 DUP2 CALLDATALOAD SWAP1 POP PUSH2 0x8FD DUP2 PUSH2 0xE05 JUMP JUMPDEST SWAP3 SWAP2 POP POP JUMP JUMPDEST PUSH1 0x0 DUP3 PUSH1 0x1F DUP4 ADD SLT PUSH2 0x914 JUMPI PUSH1 0x0 DUP1 REVERT JUMPDEST DUP2 CALLDATALOAD PUSH2 0x924 DUP5 DUP3 PUSH1 0x20 DUP7 ADD PUSH2 0x8B0 JUMP JUMPDEST SWAP2 POP POP SWAP3 SWAP2 POP POP JUMP JUMPDEST PUSH1 0x0 DUP2 CALLDATALOAD SWAP1 POP PUSH2 0x93C DUP2 PUSH2 0xE1C JUMP JUMPDEST SWAP3 SWAP2 POP POP JUMP JUMPDEST PUSH1 0x0 PUSH1 0x20 DUP3 DUP5 SUB SLT ISZERO PUSH2 0x954 JUMPI PUSH1 0x0 DUP1 REVERT JUMPDEST PUSH1 0x0 PUSH2 0x962 DUP5 DUP3 DUP6 ADD PUSH2 0x8EE JUMP JUMPDEST SWAP2 POP POP SWAP3 SWAP2 POP POP JUMP JUMPDEST PUSH1 0x0 DUP1 PUSH1 0x0 PUSH1 0x60 DUP5 DUP7 SUB SLT ISZERO PUSH2 0x980 JUMPI PUSH1 0x0 DUP1 REVERT JUMPDEST PUSH1 0x0 DUP5 ADD CALLDATALOAD PUSH8 0xFFFFFFFFFFFFFFFF DUP2 GT ISZERO PUSH2 0x99A JUMPI PUSH1 0x0 DUP1 REVERT JUMPDEST PUSH2 0x9A6 DUP7 DUP3 DUP8 ADD PUSH2 0x903 JUMP JUMPDEST SWAP4 POP POP PUSH1 0x20 PUSH2 0x9B7 DUP7 DUP3 DUP8 ADD PUSH2 0x92D JUMP JUMPDEST SWAP3 POP POP PUSH1 0x40 PUSH2 0x9C8 DUP7 DUP3 DUP8 ADD PUSH2 0x8EE JUMP JUMPDEST SWAP2 POP POP SWAP3 POP SWAP3 POP SWAP3 JUMP JUMPDEST PUSH1 0x0 PUSH1 0x20 DUP3 DUP5 SUB SLT ISZERO PUSH2 0x9E4 JUMPI PUSH1 0x0 DUP1 REVERT JUMPDEST PUSH1 0x0 PUSH2 0x9F2 DUP5 DUP3 DUP6 ADD PUSH2 0x92D JUMP JUMPDEST SWAP2 POP POP SWAP3 SWAP2 POP POP JUMP JUMPDEST PUSH2 0xA04 DUP2 PUSH2 0xC02 JUMP JUMPDEST DUP3 MSTORE POP POP JUMP JUMPDEST PUSH2 0xA13 DUP2 PUSH2 0xC14 JUMP JUMPDEST DUP3 MSTORE POP POP JUMP JUMPDEST PUSH1 0x0 PUSH2 0xA24 DUP3 PUSH2 0xBB5 JUMP JUMPDEST PUSH2 0xA2E DUP2 DUP6 PUSH2 0xBC0 JUMP JUMPDEST SWAP4 POP PUSH2 0xA3E DUP2 DUP6 PUSH1 0x20 DUP7 ADD PUSH2 0xC59 JUMP JUMPDEST PUSH2 0xA47 DUP2 PUSH2 0xDF4 JUMP JUMPDEST DUP5 ADD SWAP2 POP POP SWAP3 SWAP2 POP POP JUMP JUMPDEST PUSH2 0xA5B DUP2 PUSH2 0xC40 JUMP JUMPDEST DUP3 MSTORE POP POP JUMP JUMPDEST PUSH1 0x0 PUSH1 0x20 DUP3 ADD SWAP1 POP PUSH2 0xA76 PUSH1 0x0 DUP4 ADD DUP5 PUSH2 0x9FB JUMP JUMPDEST SWAP3 SWAP2 POP POP JUMP JUMPDEST PUSH1 0x0 PUSH1 0x20 DUP3 ADD SWAP1 POP PUSH2 0xA91 PUSH1 0x0 DUP4 ADD DUP5 PUSH2 0xA0A JUMP JUMPDEST SWAP3 SWAP2 POP POP JUMP JUMPDEST PUSH1 0x0 PUSH1 0xA0 DUP3 ADD SWAP1 POP DUP2 DUP2 SUB PUSH1 0x0 DUP4 ADD MSTORE PUSH2 0xAB1 DUP2 DUP9 PUSH2 0xA19 JUMP JUMPDEST SWAP1 POP PUSH2 0xAC0 PUSH1 0x20 DUP4 ADD DUP8 PUSH2 0xA52 JUMP JUMPDEST PUSH2 0xACD PUSH1 0x40 DUP4 ADD DUP7 PUSH2 0x9FB JUMP JUMPDEST PUSH2 0xADA PUSH1 0x60 DUP4 ADD DUP6 PUSH2 0xA0A JUMP JUMPDEST PUSH2 0xAE7 PUSH1 0x80 DUP4 ADD DUP5 PUSH2 0xA52 JUMP JUMPDEST SWAP7 SWAP6 POP POP POP POP POP POP JUMP JUMPDEST PUSH1 0x0 PUSH1 0x20 DUP3 ADD SWAP1 POP PUSH2 0xB06 PUSH1 0x0 DUP4 ADD DUP5 PUSH2 0xA52 JUMP JUMPDEST SWAP3 SWAP2 POP POP JUMP JUMPDEST PUSH1 0x0 PUSH1 0xA0 DUP3 ADD SWAP1 POP PUSH2 0xB21 PUSH1 0x0 DUP4 ADD DUP9 PUSH2 0xA52 JUMP JUMPDEST PUSH2 0xB2E PUSH1 0x20 DUP4 ADD DUP8 PUSH2 0xA52 JUMP JUMPDEST PUSH2 0xB3B PUSH1 0x40 DUP4 ADD DUP7 PUSH2 0xA52 JUMP JUMPDEST PUSH2 0xB48 PUSH1 0x60 DUP4 ADD DUP6 PUSH2 0xA52 JUMP JUMPDEST PUSH2 0xB55 PUSH1 0x80 DUP4 ADD DUP5 PUSH2 0x9FB JUMP JUMPDEST SWAP7 SWAP6 POP POP POP POP POP POP JUMP JUMPDEST PUSH1 0x0 PUSH2 0xB69 PUSH2 0xB7A JUMP JUMPDEST SWAP1 POP PUSH2 0xB75 DUP3 DUP3 PUSH2 0xCBE JUMP JUMPDEST SWAP2 SWAP1 POP JUMP JUMPDEST PUSH1 0x0 PUSH1 0x40 MLOAD SWAP1 POP SWAP1 JUMP JUMPDEST PUSH1 0x0 PUSH8 0xFFFFFFFFFFFFFFFF DUP3 GT ISZERO PUSH2 0xB9F JUMPI PUSH2 0xB9E PUSH2 0xDC5 JUMP JUMPDEST JUMPDEST PUSH2 0xBA8 DUP3 PUSH2 0xDF4 JUMP JUMPDEST SWAP1 POP PUSH1 0x20 DUP2 ADD SWAP1 POP SWAP2 SWAP1 POP JUMP JUMPDEST PUSH1 0x0 DUP2 MLOAD SWAP1 POP SWAP2 SWAP1 POP JUMP JUMPDEST PUSH1 0x0 DUP3 DUP3 MSTORE PUSH1 0x20 DUP3 ADD SWAP1 POP SWAP3 SWAP2 POP POP JUMP JUMPDEST PUSH1 0x0 PUSH2 0xBDC DUP3 PUSH2 0xC40 JUMP JUMPDEST SWAP2 POP PUSH2 0xBE7 DUP4 PUSH2 0xC40 JUMP JUMPDEST SWAP3 POP DUP3 PUSH2 0xBF7 JUMPI PUSH2 0xBF6 PUSH2 0xD67 JUMP JUMPDEST JUMPDEST DUP3 DUP3 DIV SWAP1 POP SWAP3 SWAP2 POP POP JUMP JUMPDEST PUSH1 0x0 PUSH2 0xC0D DUP3 PUSH2 0xC20 JUMP JUMPDEST SWAP1 POP SWAP2 SWAP1 POP JUMP JUMPDEST PUSH1 0x0 DUP2 ISZERO ISZERO SWAP1 POP SWAP2 SWAP1 POP JUMP JUMPDEST PUSH1 0x0 PUSH20 0xFFFFFFFFFFFFFFFFFFFFFFFFFFFFFFFFFFFFFFFF DUP3 AND SWAP1 POP SWAP2 SWAP1 POP JUMP JUMPDEST PUSH1 0x0 DUP2 SWAP1 POP SWAP2 SWAP1 POP JUMP JUMPDEST DUP3 DUP2 DUP4 CALLDATACOPY PUSH1 0x0 DUP4 DUP4 ADD MSTORE POP POP POP JUMP JUMPDEST PUSH1 0x0 JUMPDEST DUP4 DUP2 LT ISZERO PUSH2 0xC77 JUMPI DUP1 DUP3 ADD MLOAD DUP2 DUP5 ADD MSTORE PUSH1 0x20 DUP2 ADD SWAP1 POP PUSH2 0xC5C JUMP JUMPDEST DUP4 DUP2 GT ISZERO PUSH2 0xC86 JUMPI PUSH1 0x0 DUP5 DUP5 ADD MSTORE JUMPDEST POP POP POP POP JUMP JUMPDEST PUSH1 0x0 PUSH1 0x2 DUP3 DIV SWAP1 POP PUSH1 0x1 DUP3 AND DUP1 PUSH2 0xCA4 JUMPI PUSH1 0x7F DUP3 AND SWAP2 POP JUMPDEST PUSH1 0x20 DUP3 LT DUP2 EQ ISZERO PUSH2 0xCB8 JUMPI PUSH2 0xCB7 PUSH2 0xD96 JUMP JUMPDEST JUMPDEST POP SWAP2 SWAP1 POP JUMP JUMPDEST PUSH2 0xCC7 DUP3 PUSH2 0xDF4 JUMP JUMPDEST DUP2 ADD DUP2 DUP2 LT PUSH8 0xFFFFFFFFFFFFFFFF DUP3 GT OR ISZERO PUSH2 0xCE6 JUMPI PUSH2 0xCE5 PUSH2 0xDC5 JUMP JUMPDEST JUMPDEST DUP1 PUSH1 0x40 MSTORE POP POP POP JUMP JUMPDEST PUSH1 0x0 PUSH2 0xCFA DUP3 PUSH2 0xC40 JUMP JUMPDEST SWAP2 POP PUSH32 0xFFFFFFFFFFFFFFFFFFFFFFFFFFFFFFFFFFFFFFFFFFFFFFFFFFFFFFFFFFFFFFFF DUP3 EQ ISZERO PUSH2 0xD2D JUMPI PUSH2 0xD2C PUSH2 0xD38 JUMP JUMPDEST JUMPDEST PUSH1 0x1 DUP3 ADD SWAP1 POP SWAP2 SWAP1 POP JUMP JUMPDEST PUSH32 0x4E487B7100000000000000000000000000000000000000000000000000000000 PUSH1 0x0 MSTORE PUSH1 0x11 PUSH1 0x4 MSTORE PUSH1 0x24 PUSH1 0x0 REVERT JUMPDEST PUSH32 0x4E487B7100000000000000000000000000000000000000000000000000000000 PUSH1 0x0 MSTORE PUSH1 0x12 PUSH1 0x4 MSTORE PUSH1 0x24 PUSH1 0x0 REVERT JUMPDEST PUSH32 0x4E487B7100000000000000000000000000000000000000000000000000000000 PUSH1 0x0 MSTORE PUSH1 0x22 PUSH1 0x4 MSTORE PUSH1 0x24 PUSH1 0x0 REVERT JUMPDEST PUSH32 0x4E487B7100000000000000000000000000000000000000000000000000000000 PUSH1 0x0 MSTORE PUSH1 0x41 PUSH1 0x4 MSTORE PUSH1 0x24 PUSH1 0x0 REVERT JUMPDEST PUSH1 0x0 PUSH1 0x1F NOT PUSH1 0x1F DUP4 ADD AND SWAP1 POP SWAP2 SWAP1 POP JUMP JUMPDEST PUSH2 0xE0E DUP2 PUSH2 0xC02 JUMP JUMPDEST DUP2 EQ PUSH2 0xE19 JUMPI PUSH1 0x0 DUP1 REVERT JUMPDEST POP JUMP JUMPDEST PUSH2 0xE25 DUP2 PUSH2 0xC40 JUMP JUMPDEST DUP2 EQ PUSH2 0xE30 JUMPI PUSH1 0x0 DUP1 REVERT JUMPDEST POP JUMP INVALID LOG2 PUSH5 0x6970667358 0x22 SLT KECCAK256 0x5C 0xE SWAP8 PUSH19 0x780B9FE2031B48A71BF8326B92E4E04058B389 INVALID 0x4C RETURNDATACOPY 0xB7 0xB8 0xBA 0x25 0xE9 0xD2 PUSH5 0x736F6C6343 STOP ADDMOD DIV STOP CALLER "},"gasEstimates":{"creation":{"codeDepositCost":"737800","executionCost":"infinite","totalCost":"infinite"},"external":{"approveRequest(uint256)":"infinite","approvers(address)":"1568","approversCount()":"1151","contribute()":"42949","createRequest(string,uint256,address)":"infinite","finalizeRequest(uint256)":"infinite","getSummary()":"infinite","manager()":"1278","minimumContribution()":"1195","requestCount()":"1218","requests(uint256)":"infinite"}},"methodIdentifiers":{"approveRequest(uint256)":"d7d1bbdb","approvers(address)":"0a144391","approversCount()":"82fde093","contribute()":"d7bb99ba","createRequest(string,uint256,address)":"8a9cfd55","finalizeRequest(uint256)":"03441006","getSummary()":"4051ddac","manager()":"481c6a75","minimumContribution()":"937e09b1","requestCount()":"5badbe4c","requests(uint256)":"81d12c58"}},"storageLayout":{"storage":[{"astId":57,"contract":"campaign.sol:Campaign","label":"manager","offset":0,"slot":"0","type":"t_address"},{"astId":59,"contract":"campaign.sol:Campaign","label":"minimumContribution","offset":0,"slot":"1","type":"t_uint256"},{"astId":63,"contract":"campaign.sol:Campaign","label":"approvers","offset":0,"slot":"2","type":"t_mapping(t_address,t_bool)"},{"astId":68,"contract":"campaign.sol:Campaign","label":"requests","offset":0,"slot":"3","type":"t_mapping(t_uint256,t_struct(Request)55_storage)"},{"astId":70,"contract":"campaign.sol:Campaign","label":"requestCount","offset":0,"slot":"4","type":"t_uint256"},{"astId":72,"contract":"campaign.sol:Campaign","label":"approversCount","offset":0,"slot":"5","type":"t_uint256"}],"types":{"t_address":{"encoding":"inplace","label":"address","numberOfBytes":"20"},"t_bool":{"encoding":"inplace","label":"bool","numberOfBytes":"1"},"t_mapping(t_address,t_bool)":{"encoding":"mapping","key":"t_address","label":"mapping(address => bool)","numberOfBytes":"32","value":"t_bool"},"t_mapping(t_uint256,t_struct(Request)55_storage)":{"encoding":"mapping","key":"t_uint256","label":"mapping(uint256 => struct Campaign.Request)","numberOfBytes":"32","value":"t_struct(Request)55_storage"},"t_string_storage":{"encoding":"bytes","label":"string","numberOfBytes":"32"},"t_struct(Request)55_storage":{"encoding":"inplace","label":"struct Campaign.Request","members":[{"astId":42,"contract":"campaign.sol:Campaign","label":"description","offset":0,"slot":"0","type":"t_string_storage"},{"astId":44,"contract":"campaign.sol:Campaign","label":"value","offset":0,"slot":"1","type":"t_uint256"},{"astId":46,"contract":"campaign.sol:Campaign","label":"recipient","offset":0,"slot":"2","type":"t_address"},{"astId":48,"contract":"campaign.sol:Campaign","label":"complete","offset":20,"slot":"2","type":"t_bool"},{"astId":50,"contract":"campaign.sol:Campaign","label":"approvalCount","offset":0,"slot":"3","type":"t_uint256"},{"astId":54,"contract":"campaign.sol:Campaign","label":"approvals","offset":0,"slot":"4","type":"t_mapping(t_address,t_bool)"}],"numberOfBytes":"160"},"t_uint256":{"encoding":"inplace","label":"uint256","numberOfBytes":"32"}}},"userdoc":{"kind":"user","methods":{},"version":1}}